{
  "_format": "hh-sol-artifact-1",
  "contractName": "MyEpicNFT",
  "sourceName": "contracts/MyEpicNFT.sol",
  "abi": [
    {
      "inputs": [],
      "stateMutability": "nonpayable",
      "type": "constructor"
    },
    {
      "anonymous": false,
      "inputs": [
        {
          "indexed": true,
          "internalType": "address",
          "name": "owner",
          "type": "address"
        },
        {
          "indexed": true,
          "internalType": "address",
          "name": "approved",
          "type": "address"
        },
        {
          "indexed": true,
          "internalType": "uint256",
          "name": "tokenId",
          "type": "uint256"
        }
      ],
      "name": "Approval",
      "type": "event"
    },
    {
      "anonymous": false,
      "inputs": [
        {
          "indexed": true,
          "internalType": "address",
          "name": "owner",
          "type": "address"
        },
        {
          "indexed": true,
          "internalType": "address",
          "name": "operator",
          "type": "address"
        },
        {
          "indexed": false,
          "internalType": "bool",
          "name": "approved",
          "type": "bool"
        }
      ],
      "name": "ApprovalForAll",
      "type": "event"
    },
    {
      "anonymous": false,
      "inputs": [
        {
          "indexed": true,
          "internalType": "address",
          "name": "previousOwner",
          "type": "address"
        },
        {
          "indexed": true,
          "internalType": "address",
          "name": "newOwner",
          "type": "address"
        }
      ],
      "name": "OwnershipTransferred",
      "type": "event"
    },
    {
      "anonymous": false,
      "inputs": [
        {
          "indexed": true,
          "internalType": "address",
          "name": "from",
          "type": "address"
        },
        {
          "indexed": true,
          "internalType": "address",
          "name": "to",
          "type": "address"
        },
        {
          "indexed": true,
          "internalType": "uint256",
          "name": "tokenId",
          "type": "uint256"
        }
      ],
      "name": "Transfer",
      "type": "event"
    },
    {
      "inputs": [
        {
          "internalType": "address",
          "name": "to",
          "type": "address"
        },
        {
          "internalType": "uint256",
          "name": "tokenId",
          "type": "uint256"
        }
      ],
      "name": "approve",
      "outputs": [],
      "stateMutability": "nonpayable",
      "type": "function"
    },
    {
      "inputs": [
        {
          "internalType": "address",
          "name": "owner",
          "type": "address"
        }
      ],
      "name": "balanceOf",
      "outputs": [
        {
          "internalType": "uint256",
          "name": "",
          "type": "uint256"
        }
      ],
      "stateMutability": "view",
      "type": "function"
    },
    {
      "inputs": [
        {
          "internalType": "uint256",
          "name": "tokenId",
          "type": "uint256"
        }
      ],
      "name": "getApproved",
      "outputs": [
        {
          "internalType": "address",
          "name": "",
          "type": "address"
        }
      ],
      "stateMutability": "view",
      "type": "function"
    },
    {
      "inputs": [
        {
          "internalType": "address",
          "name": "owner",
          "type": "address"
        },
        {
          "internalType": "address",
          "name": "operator",
          "type": "address"
        }
      ],
      "name": "isApprovedForAll",
      "outputs": [
        {
          "internalType": "bool",
          "name": "",
          "type": "bool"
        }
      ],
      "stateMutability": "view",
      "type": "function"
    },
    {
      "inputs": [],
      "name": "mintNFT",
      "outputs": [],
      "stateMutability": "nonpayable",
      "type": "function"
    },
    {
      "inputs": [],
      "name": "name",
      "outputs": [
        {
          "internalType": "string",
          "name": "",
          "type": "string"
        }
      ],
      "stateMutability": "view",
      "type": "function"
    },
    {
      "inputs": [],
      "name": "owner",
      "outputs": [
        {
          "internalType": "address",
          "name": "",
          "type": "address"
        }
      ],
      "stateMutability": "view",
      "type": "function"
    },
    {
      "inputs": [
        {
          "internalType": "uint256",
          "name": "tokenId",
          "type": "uint256"
        }
      ],
      "name": "ownerOf",
      "outputs": [
        {
          "internalType": "address",
          "name": "",
          "type": "address"
        }
      ],
      "stateMutability": "view",
      "type": "function"
    },
    {
      "inputs": [
        {
          "internalType": "uint256",
          "name": "tokenId",
          "type": "uint256"
        }
      ],
      "name": "pickRandomFirstWord",
      "outputs": [
        {
          "internalType": "string",
          "name": "",
          "type": "string"
        }
      ],
      "stateMutability": "view",
      "type": "function"
    },
    {
      "inputs": [
        {
          "internalType": "uint256",
          "name": "tokenId",
          "type": "uint256"
        }
      ],
      "name": "pickRandomSecondWord",
      "outputs": [
        {
          "internalType": "string",
          "name": "",
          "type": "string"
        }
      ],
      "stateMutability": "view",
      "type": "function"
    },
    {
      "inputs": [
        {
          "internalType": "uint256",
          "name": "tokenId",
          "type": "uint256"
        }
      ],
      "name": "pickRandomThirdWord",
      "outputs": [
        {
          "internalType": "string",
          "name": "",
          "type": "string"
        }
      ],
      "stateMutability": "view",
      "type": "function"
    },
    {
      "inputs": [],
      "name": "renounceOwnership",
      "outputs": [],
      "stateMutability": "nonpayable",
      "type": "function"
    },
    {
      "inputs": [
        {
          "internalType": "address",
          "name": "from",
          "type": "address"
        },
        {
          "internalType": "address",
          "name": "to",
          "type": "address"
        },
        {
          "internalType": "uint256",
          "name": "tokenId",
          "type": "uint256"
        }
      ],
      "name": "safeTransferFrom",
      "outputs": [],
      "stateMutability": "nonpayable",
      "type": "function"
    },
    {
      "inputs": [
        {
          "internalType": "address",
          "name": "from",
          "type": "address"
        },
        {
          "internalType": "address",
          "name": "to",
          "type": "address"
        },
        {
          "internalType": "uint256",
          "name": "tokenId",
          "type": "uint256"
        },
        {
          "internalType": "bytes",
          "name": "_data",
          "type": "bytes"
        }
      ],
      "name": "safeTransferFrom",
      "outputs": [],
      "stateMutability": "nonpayable",
      "type": "function"
    },
    {
      "inputs": [
        {
          "internalType": "address",
          "name": "operator",
          "type": "address"
        },
        {
          "internalType": "bool",
          "name": "approved",
          "type": "bool"
        }
      ],
      "name": "setApprovalForAll",
      "outputs": [],
      "stateMutability": "nonpayable",
      "type": "function"
    },
    {
      "inputs": [
        {
          "internalType": "bytes4",
          "name": "interfaceId",
          "type": "bytes4"
        }
      ],
      "name": "supportsInterface",
      "outputs": [
        {
          "internalType": "bool",
          "name": "",
          "type": "bool"
        }
      ],
      "stateMutability": "view",
      "type": "function"
    },
    {
      "inputs": [],
      "name": "symbol",
      "outputs": [
        {
          "internalType": "string",
          "name": "",
          "type": "string"
        }
      ],
      "stateMutability": "view",
      "type": "function"
    },
    {
      "inputs": [
        {
          "internalType": "uint256",
          "name": "tokenId",
          "type": "uint256"
        }
      ],
      "name": "tokenURI",
      "outputs": [
        {
          "internalType": "string",
          "name": "",
          "type": "string"
        }
      ],
      "stateMutability": "view",
      "type": "function"
    },
    {
      "inputs": [
        {
          "internalType": "address",
          "name": "from",
          "type": "address"
        },
        {
          "internalType": "address",
          "name": "to",
          "type": "address"
        },
        {
          "internalType": "uint256",
          "name": "tokenId",
          "type": "uint256"
        }
      ],
      "name": "transferFrom",
      "outputs": [],
      "stateMutability": "nonpayable",
      "type": "function"
    },
    {
      "inputs": [
        {
          "internalType": "address",
          "name": "newOwner",
          "type": "address"
        }
      ],
      "name": "transferOwnership",
      "outputs": [],
      "stateMutability": "nonpayable",
      "type": "function"
    }
  ],
  "bytecode": "0x608060405260405180610160016040528061012f81526020016200517561012f91396009908051906020019062000038929190620010a7565b50604051806101a001604052806040518060400160405280600681526020017f477265617420000000000000000000000000000000000000000000000000000081525081526020016040518060400160405280600681526020017f4c6172676520000000000000000000000000000000000000000000000000000081525081526020016040518060400160405280600681526020017f536d616c6c20000000000000000000000000000000000000000000000000000081525081526020016040518060400160405280600881526020017f416d617a696e672000000000000000000000000000000000000000000000000081525081526020016040518060400160405280600981526020017f546572726966696320000000000000000000000000000000000000000000000081525081526020016040518060400160405280600b81526020017f496e6372656469626c652000000000000000000000000000000000000000000081525081526020016040518060400160405280600481526020017f466174200000000000000000000000000000000000000000000000000000000081525081526020016040518060400160405280600681526020017f536c696d7920000000000000000000000000000000000000000000000000000081525081526020016040518060400160405280600881526020017f506c617966756c2000000000000000000000000000000000000000000000000081525081526020016040518060400160405280600c81526020017f436f6e736964657261746520000000000000000000000000000000000000000081525081526020016040518060400160405280600781526020017f536e65616b79200000000000000000000000000000000000000000000000000081525081526020016040518060400160405280600981526020017f50726f646967616c20000000000000000000000000000000000000000000000081525081526020016040518060400160405280600681526020017f426f726564200000000000000000000000000000000000000000000000000000815250815250600a90600d6200035492919062001138565b506040518061028001604052806040518060400160405280600481526020017f526564200000000000000000000000000000000000000000000000000000000081525081526020016040518060400160405280600681526020017f477265656e20000000000000000000000000000000000000000000000000000081525081526020016040518060400160405280600781526020017f59656c6c6f77200000000000000000000000000000000000000000000000000081525081526020016040518060400160405280600781526020017f507572706c65200000000000000000000000000000000000000000000000000081525081526020016040518060400160405280600581526020017f426c75652000000000000000000000000000000000000000000000000000000081525081526020016040518060400160405280600781526020017f56696f6c6574200000000000000000000000000000000000000000000000000081525081526020016040518060400160405280600781526020017f4f72616e6765200000000000000000000000000000000000000000000000000081525081526020016040518060400160405280600681526020017f5368696e7920000000000000000000000000000000000000000000000000000081525081526020016040518060400160405280600581526020017f4d696e742000000000000000000000000000000000000000000000000000000081525081526020016040518060400160405280600981526020017f4c6176656e64657220000000000000000000000000000000000000000000000081525081526020016040518060400160405280600581526020017f50696e6b2000000000000000000000000000000000000000000000000000000081525081526020016040518060400160405280600881526020017f4372696d736f6e2000000000000000000000000000000000000000000000000081525081526020016040518060400160405280600781526020017f4d61726f6f6e200000000000000000000000000000000000000000000000000081525081526020016040518060400160405280600681526020017f426c61636b20000000000000000000000000000000000000000000000000000081525081526020016040518060400160405280600681526020017f576869746520000000000000000000000000000000000000000000000000000081525081526020016040518060400160405280600781526020017f496e6469676f200000000000000000000000000000000000000000000000000081525081526020016040518060400160405280600681526020017f42726f776e20000000000000000000000000000000000000000000000000000081525081526020016040518060400160405280600981526020017f43686172636f616c20000000000000000000000000000000000000000000000081525081526020016040518060400160405280600981526020017f4567677368656c6c20000000000000000000000000000000000000000000000081525081526020016040518060400160405280600581526020017f4e61767920000000000000000000000000000000000000000000000000000000815250815250600b9060146200080d9291906200119f565b506040518061032001604052806040518060400160405280600881526020017f5261797175617a6100000000000000000000000000000000000000000000000081525081526020016040518060400160405280600781526020017f50696b616368750000000000000000000000000000000000000000000000000081525081526020016040518060400160405280600881526020017f47617263686f6d7000000000000000000000000000000000000000000000000081525081526020016040518060400160405280600981526020017f496e6665726e617065000000000000000000000000000000000000000000000081525081526020016040518060400160405280600781526020017f4269626172656c0000000000000000000000000000000000000000000000000081525081526020016040518060400160405280600881526020017f466c6f61747a656c00000000000000000000000000000000000000000000000081525081526020016040518060400160405280600981526020017f43686172697a617264000000000000000000000000000000000000000000000081525081526020016040518060400160405280600981526020017f426c6173746f697365000000000000000000000000000000000000000000000081525081526020016040518060400160405280600881526020017f56656e757361757200000000000000000000000000000000000000000000000081525081526020016040518060400160405280600681526020017f417263657573000000000000000000000000000000000000000000000000000081525081526020016040518060400160405280600681526020017f5a616369616e000000000000000000000000000000000000000000000000000081525081526020016040518060400160405280600981526020017f42617374696f646f6e000000000000000000000000000000000000000000000081525081526020016040518060400160405280600a81526020017f496e63696e65726f61720000000000000000000000000000000000000000000081525081526020016040518060400160405280600881526020017f5363657074696c6500000000000000000000000000000000000000000000000081525081526020016040518060400160405280600581526020017f4c7567696100000000000000000000000000000000000000000000000000000081525081526020016040518060400160405280600781526020017f536379746865720000000000000000000000000000000000000000000000000081525081526020016040518060400160405280600781526020017f5976656c74616c0000000000000000000000000000000000000000000000000081525081526020016040518060400160405280600781526020017f5865726e6561730000000000000000000000000000000000000000000000000081525081526020016040518060400160405280600681526020017f4b797572656d000000000000000000000000000000000000000000000000000081525081526020016040518060400160405280600681526020017f4469616c6761000000000000000000000000000000000000000000000000000081525081526020016040518060400160405280600681526020017f50616c6b6961000000000000000000000000000000000000000000000000000081525081526020016040518060400160405280600781526020017f47726f75646f6e0000000000000000000000000000000000000000000000000081525081526020016040518060400160405280600681526020017f4b796f677265000000000000000000000000000000000000000000000000000081525081526020016040518060400160405280600881526020017f4d6167696b61727000000000000000000000000000000000000000000000000081525081526020016040518060400160405280600981526020017f5061636869726973750000000000000000000000000000000000000000000000815250815250600c90601962000ded92919062001206565b5034801562000dfb57600080fd5b506040518060400160405280601781526020017f4275696c64737061636520506f6b656d6f6e20546573740000000000000000008152506040518060400160405280600581526020017f42504b4d4e000000000000000000000000000000000000000000000000000000815250816000908051906020019062000e80929190620010a7565b50806001908051906020019062000e99929190620010a7565b50505062000ebc62000eb062000f0d60201b60201c565b62000f1560201b60201c565b62000f076040518060400160405280601e81526020017f54686973206973206d79204e465420636f6e74726163742e20576f616821000081525062000fdb60201b6200141d1760201c565b62001427565b600033905090565b6000600760009054906101000a900473ffffffffffffffffffffffffffffffffffffffff16905081600760006101000a81548173ffffffffffffffffffffffffffffffffffffffff021916908373ffffffffffffffffffffffffffffffffffffffff1602179055508173ffffffffffffffffffffffffffffffffffffffff168173ffffffffffffffffffffffffffffffffffffffff167f8be0079c531659141344cd1fd0a4f28419497f9722a3daafe3b4186f6b6457e060405160405180910390a35050565b6200107b8160405160240162000ff291906200133b565b6040516020818303038152906040527f41304fac000000000000000000000000000000000000000000000000000000007bffffffffffffffffffffffffffffffffffffffffffffffffffffffff19166020820180517bffffffffffffffffffffffffffffffffffffffffffffffffffffffff83818316178352505050506200107e60201b60201c565b50565b60008151905060006a636f6e736f6c652e6c6f679050602083016000808483855afa5050505050565b828054620010b590620013b1565b90600052602060002090601f016020900481019282620010d9576000855562001125565b82601f10620010f457805160ff191683800117855562001125565b8280016001018555821562001125579182015b828111156200112457825182559160200191906001019062001107565b5b5090506200113491906200126d565b5090565b8280548282559060005260206000209081019282156200118c579160200282015b828111156200118b5782518290805190602001906200117a929190620010a7565b509160200191906001019062001159565b5b5090506200119b91906200128c565b5090565b828054828255906000526020600020908101928215620011f3579160200282015b82811115620011f2578251829080519060200190620011e1929190620010a7565b5091602001919060010190620011c0565b5b5090506200120291906200128c565b5090565b8280548282559060005260206000209081019282156200125a579160200282015b828111156200125957825182908051906020019062001248929190620010a7565b509160200191906001019062001227565b5b5090506200126991906200128c565b5090565b5b80821115620012885760008160009055506001016200126e565b5090565b5b80821115620012b05760008181620012a69190620012b4565b506001016200128d565b5090565b508054620012c290620013b1565b6000825580601f10620012d65750620012f7565b601f016020900490600052602060002090810190620012f691906200126d565b5b50565b600062001307826200135f565b6200131381856200136a565b9350620013258185602086016200137b565b620013308162001416565b840191505092915050565b60006020820190508181036000830152620013578184620012fa565b905092915050565b600081519050919050565b600082825260208201905092915050565b60005b838110156200139b5780820151818401526020810190506200137e565b83811115620013ab576000848401525b50505050565b60006002820490506001821680620013ca57607f821691505b60208210811415620013e157620013e0620013e7565b5b50919050565b7f4e487b7100000000000000000000000000000000000000000000000000000000600052602260045260246000fd5b6000601f19601f8301169050919050565b613d3e80620014376000396000f3fe608060405234801561001057600080fd5b506004361061012c5760003560e01c8063715018a6116100ad578063b88d4fde11610071578063b88d4fde1461032f578063c575757a1461034b578063c87b56dd1461037b578063e985e9c5146103ab578063f2fde38b146103db5761012c565b8063715018a61461029d5780638da5cb5b146102a757806395d89b41146102c5578063a22cb465146102e3578063b187301f146102ff5761012c565b806323b872dd116100f457806323b872dd146101d55780632de38d68146101f157806342842e0e146102215780636352211e1461023d57806370a082311461026d5761012c565b806301ffc9a71461013157806306fdde0314610161578063081812fc1461017f578063095ea7b3146101af57806314f710fe146101cb575b600080fd5b61014b60048036038101906101469190612776565b6103f7565b6040516101589190612ec4565b60405180910390f35b6101696104d9565b6040516101769190612edf565b60405180910390f35b610199600480360381019061019491906127c8565b61056b565b6040516101a69190612e5d565b60405180910390f35b6101c960048036038101906101c4919061273a565b6105f0565b005b6101d3610708565b005b6101ef60048036038101906101ea9190612634565b6108b6565b005b61020b600480360381019061020691906127c8565b610916565b6040516102189190612edf565b60405180910390f35b61023b60048036038101906102369190612634565b610a3e565b005b610257600480360381019061025291906127c8565b610a5e565b6040516102649190612e5d565b60405180910390f35b610287600480360381019061028291906125cf565b610b10565b604051610294919061317f565b60405180910390f35b6102a5610bc8565b005b6102af610c50565b6040516102bc9190612e5d565b60405180910390f35b6102cd610c7a565b6040516102da9190612edf565b60405180910390f35b6102fd60048036038101906102f891906126fe565b610d0c565b005b610319600480360381019061031491906127c8565b610e8d565b6040516103269190612edf565b60405180910390f35b61034960048036038101906103449190612683565b610fb5565b005b610365600480360381019061036091906127c8565b611017565b6040516103729190612edf565b60405180910390f35b610395600480360381019061039091906127c8565b61113f565b6040516103a29190612edf565b60405180910390f35b6103c560048036038101906103c091906125f8565b611291565b6040516103d29190612ec4565b60405180910390f35b6103f560048036038101906103f091906125cf565b611325565b005b60007f80ac58cd000000000000000000000000000000000000000000000000000000007bffffffffffffffffffffffffffffffffffffffffffffffffffffffff1916827bffffffffffffffffffffffffffffffffffffffffffffffffffffffff191614806104c257507f5b5e139f000000000000000000000000000000000000000000000000000000007bffffffffffffffffffffffffffffffffffffffffffffffffffffffff1916827bffffffffffffffffffffffffffffffffffffffffffffffffffffffff1916145b806104d257506104d1826114b6565b5b9050919050565b6060600080546104e890613413565b80601f016020809104026020016040519081016040528092919081815260200182805461051490613413565b80156105615780601f1061053657610100808354040283529160200191610561565b820191906000526020600020905b81548152906001019060200180831161054457829003601f168201915b5050505050905090565b600061057682611520565b6105b5576040517f08c379a00000000000000000000000000000000000000000000000000000000081526004016105ac906130bf565b60405180910390fd5b6004600083815260200190815260200160002060009054906101000a900473ffffffffffffffffffffffffffffffffffffffff169050919050565b60006105fb82610a5e565b90508073ffffffffffffffffffffffffffffffffffffffff168373ffffffffffffffffffffffffffffffffffffffff16141561066c576040517f08c379a00000000000000000000000000000000000000000000000000000000081526004016106639061313f565b60405180910390fd5b8073ffffffffffffffffffffffffffffffffffffffff1661068b61158c565b73ffffffffffffffffffffffffffffffffffffffff1614806106ba57506106b9816106b461158c565b611291565b5b6106f9576040517f08c379a00000000000000000000000000000000000000000000000000000000081526004016106f090612fff565b60405180910390fd5b6107038383611594565b505050565b6000610714600861164d565b9050600061072182610916565b9050600061072e83610e8d565b9050600061073b84611017565b9050600083838360405160200161075493929190612d09565b6040516020818303038152906040529050600060098260405160200161077b929190612d3a565b604051602081830303815290604052905060006107c08361079b8461165b565b6040516020016107ac929190612dc7565b60405160208183030381529060405261165b565b90506000816040516020016107d59190612e3b565b60405160208183030381529060405290506108246040518060400160405280601581526020017f0a2d2d2d2d2d2d2d2d2d2d2d2d2d2d2d2d2d2d2d2d000000000000000000000081525061141d565b61082d8161141d565b61086b6040518060400160405280601581526020017f2d2d2d2d2d2d2d2d2d2d2d2d2d2d2d2d2d2d2d2d0a000000000000000000000081525061141d565b6108753389611819565b61087f8882611837565b61088960086118ab565b6108ac604051806060016040528060258152602001613ca46025913989336118c1565b5050505050505050565b6108c76108c161158c565b82611960565b610906576040517f08c379a00000000000000000000000000000000000000000000000000000000081526004016108fd9061315f565b60405180910390fd5b610911838383611a3e565b505050565b6060600061095461092684611c9a565b61092f42611c9a565b604051602001610940929190612e0c565b604051602081830303815290604052611e47565b9050600a805490508161096791906134bf565b9050600a81815481106109a3577f4e487b7100000000000000000000000000000000000000000000000000000000600052603260045260246000fd5b9060005260206000200180546109b890613413565b80601f01602080910402602001604051908101604052809291908181526020018280546109e490613413565b8015610a315780601f10610a0657610100808354040283529160200191610a31565b820191906000526020600020905b815481529060010190602001808311610a1457829003601f168201915b5050505050915050919050565b610a5983838360405180602001604052806000815250610fb5565b505050565b6000806002600084815260200190815260200160002060009054906101000a900473ffffffffffffffffffffffffffffffffffffffff169050600073ffffffffffffffffffffffffffffffffffffffff168173ffffffffffffffffffffffffffffffffffffffff161415610b07576040517f08c379a0000000000000000000000000000000000000000000000000000000008152600401610afe9061303f565b60405180910390fd5b80915050919050565b60008073ffffffffffffffffffffffffffffffffffffffff168273ffffffffffffffffffffffffffffffffffffffff161415610b81576040517f08c379a0000000000000000000000000000000000000000000000000000000008152600401610b789061301f565b60405180910390fd5b600360008373ffffffffffffffffffffffffffffffffffffffff1673ffffffffffffffffffffffffffffffffffffffff168152602001908152602001600020549050919050565b610bd061158c565b73ffffffffffffffffffffffffffffffffffffffff16610bee610c50565b73ffffffffffffffffffffffffffffffffffffffff1614610c44576040517f08c379a0000000000000000000000000000000000000000000000000000000008152600401610c3b906130df565b60405180910390fd5b610c4e6000611e7a565b565b6000600760009054906101000a900473ffffffffffffffffffffffffffffffffffffffff16905090565b606060018054610c8990613413565b80601f0160208091040260200160405190810160405280929190818152602001828054610cb590613413565b8015610d025780601f10610cd757610100808354040283529160200191610d02565b820191906000526020600020905b815481529060010190602001808311610ce557829003601f168201915b5050505050905090565b610d1461158c565b73ffffffffffffffffffffffffffffffffffffffff168273ffffffffffffffffffffffffffffffffffffffff161415610d82576040517f08c379a0000000000000000000000000000000000000000000000000000000008152600401610d7990612fbf565b60405180910390fd5b8060056000610d8f61158c565b73ffffffffffffffffffffffffffffffffffffffff1673ffffffffffffffffffffffffffffffffffffffff16815260200190815260200160002060008473ffffffffffffffffffffffffffffffffffffffff1673ffffffffffffffffffffffffffffffffffffffff16815260200190815260200160002060006101000a81548160ff0219169083151502179055508173ffffffffffffffffffffffffffffffffffffffff16610e3c61158c565b73ffffffffffffffffffffffffffffffffffffffff167f17307eab39ab6107e8899845ad3d59bd9653f200f220920489ca2b5937696c3183604051610e819190612ec4565b60405180910390a35050565b60606000610ecb610e9d84611c9a565b610ea642611c9a565b604051602001610eb7929190612d98565b604051602081830303815290604052611e47565b9050600b8054905081610ede91906134bf565b9050600b8181548110610f1a577f4e487b7100000000000000000000000000000000000000000000000000000000600052603260045260246000fd5b906000526020600020018054610f2f90613413565b80601f0160208091040260200160405190810160405280929190818152602001828054610f5b90613413565b8015610fa85780601f10610f7d57610100808354040283529160200191610fa8565b820191906000526020600020905b815481529060010190602001808311610f8b57829003601f168201915b5050505050915050919050565b610fc6610fc061158c565b83611960565b611005576040517f08c379a0000000000000000000000000000000000000000000000000000000008152600401610ffc9061315f565b60405180910390fd5b61101184848484611f40565b50505050565b6060600061105561102784611c9a565b61103042611c9a565b604051602001611041929190612d69565b604051602081830303815290604052611e47565b9050600c805490508161106891906134bf565b9050600c81815481106110a4577f4e487b7100000000000000000000000000000000000000000000000000000000600052603260045260246000fd5b9060005260206000200180546110b990613413565b80601f01602080910402602001604051908101604052809291908181526020018280546110e590613413565b80156111325780601f1061110757610100808354040283529160200191611132565b820191906000526020600020905b81548152906001019060200180831161111557829003601f168201915b5050505050915050919050565b606061114a82611520565b611189576040517f08c379a00000000000000000000000000000000000000000000000000000000081526004016111809061309f565b60405180910390fd5b60006006600084815260200190815260200160002080546111a990613413565b80601f01602080910402602001604051908101604052809291908181526020018280546111d590613413565b80156112225780601f106111f757610100808354040283529160200191611222565b820191906000526020600020905b81548152906001019060200180831161120557829003601f168201915b505050505090506000611233611f9c565b905060008151141561124957819250505061128c565b60008251111561127e578082604051602001611266929190612ce5565b6040516020818303038152906040529250505061128c565b61128784611fb3565b925050505b919050565b6000600560008473ffffffffffffffffffffffffffffffffffffffff1673ffffffffffffffffffffffffffffffffffffffff16815260200190815260200160002060008373ffffffffffffffffffffffffffffffffffffffff1673ffffffffffffffffffffffffffffffffffffffff16815260200190815260200160002060009054906101000a900460ff16905092915050565b61132d61158c565b73ffffffffffffffffffffffffffffffffffffffff1661134b610c50565b73ffffffffffffffffffffffffffffffffffffffff16146113a1576040517f08c379a0000000000000000000000000000000000000000000000000000000008152600401611398906130df565b60405180910390fd5b600073ffffffffffffffffffffffffffffffffffffffff168173ffffffffffffffffffffffffffffffffffffffff161415611411576040517f08c379a000000000000000000000000000000000000000000000000000000000815260040161140890612f5f565b60405180910390fd5b61141a81611e7a565b50565b6114b3816040516024016114319190612edf565b6040516020818303038152906040527f41304fac000000000000000000000000000000000000000000000000000000007bffffffffffffffffffffffffffffffffffffffffffffffffffffffff19166020820180517bffffffffffffffffffffffffffffffffffffffffffffffffffffffff838183161783525050505061205a565b50565b60007f01ffc9a7000000000000000000000000000000000000000000000000000000007bffffffffffffffffffffffffffffffffffffffffffffffffffffffff1916827bffffffffffffffffffffffffffffffffffffffffffffffffffffffff1916149050919050565b60008073ffffffffffffffffffffffffffffffffffffffff166002600084815260200190815260200160002060009054906101000a900473ffffffffffffffffffffffffffffffffffffffff1673ffffffffffffffffffffffffffffffffffffffff1614159050919050565b600033905090565b816004600083815260200190815260200160002060006101000a81548173ffffffffffffffffffffffffffffffffffffffff021916908373ffffffffffffffffffffffffffffffffffffffff160217905550808273ffffffffffffffffffffffffffffffffffffffff1661160783610a5e565b73ffffffffffffffffffffffffffffffffffffffff167f8c5be1e5ebec7d5bd14f71427d1e84f3dd0314c0f7b2291e5b200ac8c7c3b92560405160405180910390a45050565b600081600001549050919050565b606060008251905060008114156116845760405180602001604052806000815250915050611814565b600060036002836116959190613248565b61169f919061329e565b60046116ab91906132cf565b905060006020826116bc9190613248565b67ffffffffffffffff8111156116fb577f4e487b7100000000000000000000000000000000000000000000000000000000600052604160045260246000fd5b6040519080825280601f01601f19166020018201604052801561172d5781602001600182028036833780820191505090505b5090506000604051806060016040528060408152602001613cc9604091399050600181016020830160005b868110156117d15760038101905062ffffff818a015116603f8160121c168401518060081b905060ff603f83600c1c1686015116810190508060081b905060ff603f8360061c1686015116810190508060081b905060ff603f831686015116810190508060e01b90508084526004840193505050611758565b5060038606600181146117eb57600281146117fb57611806565b613d3d60f01b6002830352611806565b603d60f81b60018303525b508484525050819450505050505b919050565b611833828260405180602001604052806000815250612083565b5050565b61184082611520565b61187f576040517f08c379a00000000000000000000000000000000000000000000000000000000081526004016118769061305f565b60405180910390fd5b806006600084815260200190815260200160002090805190602001906118a692919061245b565b505050565b6001816000016000828254019250508190555050565b61195b8383836040516024016118d993929190612f01565b6040516020818303038152906040527fe3849f79000000000000000000000000000000000000000000000000000000007bffffffffffffffffffffffffffffffffffffffffffffffffffffffff19166020820180517bffffffffffffffffffffffffffffffffffffffffffffffffffffffff838183161783525050505061205a565b505050565b600061196b82611520565b6119aa576040517f08c379a00000000000000000000000000000000000000000000000000000000081526004016119a190612fdf565b60405180910390fd5b60006119b583610a5e565b90508073ffffffffffffffffffffffffffffffffffffffff168473ffffffffffffffffffffffffffffffffffffffff161480611a2457508373ffffffffffffffffffffffffffffffffffffffff16611a0c8461056b565b73ffffffffffffffffffffffffffffffffffffffff16145b80611a355750611a348185611291565b5b91505092915050565b8273ffffffffffffffffffffffffffffffffffffffff16611a5e82610a5e565b73ffffffffffffffffffffffffffffffffffffffff1614611ab4576040517f08c379a0000000000000000000000000000000000000000000000000000000008152600401611aab906130ff565b60405180910390fd5b600073ffffffffffffffffffffffffffffffffffffffff168273ffffffffffffffffffffffffffffffffffffffff161415611b24576040517f08c379a0000000000000000000000000000000000000000000000000000000008152600401611b1b90612f9f565b60405180910390fd5b611b2f8383836120de565b611b3a600082611594565b6001600360008573ffffffffffffffffffffffffffffffffffffffff1673ffffffffffffffffffffffffffffffffffffffff1681526020019081526020016000206000828254611b8a9190613329565b925050819055506001600360008473ffffffffffffffffffffffffffffffffffffffff1673ffffffffffffffffffffffffffffffffffffffff1681526020019081526020016000206000828254611be19190613248565b92505081905550816002600083815260200190815260200160002060006101000a81548173ffffffffffffffffffffffffffffffffffffffff021916908373ffffffffffffffffffffffffffffffffffffffff160217905550808273ffffffffffffffffffffffffffffffffffffffff168473ffffffffffffffffffffffffffffffffffffffff167fddf252ad1be2c89b69c2b068fc378daa952ba7f163c4a11628f55a4df523b3ef60405160405180910390a4505050565b60606000821415611ce2576040518060400160405280600181526020017f30000000000000000000000000000000000000000000000000000000000000008152509050611e42565b600082905060005b60008214611d14578080611cfd90613476565b915050600a82611d0d919061329e565b9150611cea565b60008167ffffffffffffffff811115611d56577f4e487b7100000000000000000000000000000000000000000000000000000000600052604160045260246000fd5b6040519080825280601f01601f191660200182016040528015611d885781602001600182028036833780820191505090505b5090505b60008514611e3b57600182611da19190613329565b9150600a85611db091906134bf565b6030611dbc9190613248565b60f81b818381518110611df8577f4e487b7100000000000000000000000000000000000000000000000000000000600052603260045260246000fd5b60200101907effffffffffffffffffffffffffffffffffffffffffffffffffffffffffffff1916908160001a905350600a85611e34919061329e565b9450611d8c565b8093505050505b919050565b600081604051602001611e5a9190612cce565b6040516020818303038152906040528051906020012060001c9050919050565b6000600760009054906101000a900473ffffffffffffffffffffffffffffffffffffffff16905081600760006101000a81548173ffffffffffffffffffffffffffffffffffffffff021916908373ffffffffffffffffffffffffffffffffffffffff1602179055508173ffffffffffffffffffffffffffffffffffffffff168173ffffffffffffffffffffffffffffffffffffffff167f8be0079c531659141344cd1fd0a4f28419497f9722a3daafe3b4186f6b6457e060405160405180910390a35050565b611f4b848484611a3e565b611f57848484846120e3565b611f96576040517f08c379a0000000000000000000000000000000000000000000000000000000008152600401611f8d90612f3f565b60405180910390fd5b50505050565b606060405180602001604052806000815250905090565b6060611fbe82611520565b611ffd576040517f08c379a0000000000000000000000000000000000000000000000000000000008152600401611ff49061311f565b60405180910390fd5b6000612007611f9c565b905060008151116120275760405180602001604052806000815250612052565b8061203184611c9a565b604051602001612042929190612ce5565b6040516020818303038152906040525b915050919050565b60008151905060006a636f6e736f6c652e6c6f679050602083016000808483855afa5050505050565b61208d838361227a565b61209a60008484846120e3565b6120d9576040517f08c379a00000000000000000000000000000000000000000000000000000000081526004016120d090612f3f565b60405180910390fd5b505050565b505050565b60006121048473ffffffffffffffffffffffffffffffffffffffff16612448565b1561226d578373ffffffffffffffffffffffffffffffffffffffff1663150b7a0261212d61158c565b8786866040518563ffffffff1660e01b815260040161214f9493929190612e78565b602060405180830381600087803b15801561216957600080fd5b505af192505050801561219a57506040513d601f19601f82011682018060405250810190612197919061279f565b60015b61221d573d80600081146121ca576040519150601f19603f3d011682016040523d82523d6000602084013e6121cf565b606091505b50600081511415612215576040517f08c379a000000000000000000000000000000000000000000000000000000000815260040161220c90612f3f565b60405180910390fd5b805181602001fd5b63150b7a0260e01b7bffffffffffffffffffffffffffffffffffffffffffffffffffffffff1916817bffffffffffffffffffffffffffffffffffffffffffffffffffffffff191614915050612272565b600190505b949350505050565b600073ffffffffffffffffffffffffffffffffffffffff168273ffffffffffffffffffffffffffffffffffffffff1614156122ea576040517f08c379a00000000000000000000000000000000000000000000000000000000081526004016122e19061307f565b60405180910390fd5b6122f381611520565b15612333576040517f08c379a000000000000000000000000000000000000000000000000000000000815260040161232a90612f7f565b60405180910390fd5b61233f600083836120de565b6001600360008473ffffffffffffffffffffffffffffffffffffffff1673ffffffffffffffffffffffffffffffffffffffff168152602001908152602001600020600082825461238f9190613248565b92505081905550816002600083815260200190815260200160002060006101000a81548173ffffffffffffffffffffffffffffffffffffffff021916908373ffffffffffffffffffffffffffffffffffffffff160217905550808273ffffffffffffffffffffffffffffffffffffffff16600073ffffffffffffffffffffffffffffffffffffffff167fddf252ad1be2c89b69c2b068fc378daa952ba7f163c4a11628f55a4df523b3ef60405160405180910390a45050565b600080823b905060008111915050919050565b82805461246790613413565b90600052602060002090601f01602090048101928261248957600085556124d0565b82601f106124a257805160ff19168380011785556124d0565b828001600101855582156124d0579182015b828111156124cf5782518255916020019190600101906124b4565b5b5090506124dd91906124e1565b5090565b5b808211156124fa5760008160009055506001016124e2565b5090565b600061251161250c846131bf565b61319a565b90508281526020810184848401111561252957600080fd5b6125348482856133d1565b509392505050565b60008135905061254b81613c47565b92915050565b60008135905061256081613c5e565b92915050565b60008135905061257581613c75565b92915050565b60008151905061258a81613c75565b92915050565b600082601f8301126125a157600080fd5b81356125b18482602086016124fe565b91505092915050565b6000813590506125c981613c8c565b92915050565b6000602082840312156125e157600080fd5b60006125ef8482850161253c565b91505092915050565b6000806040838503121561260b57600080fd5b60006126198582860161253c565b925050602061262a8582860161253c565b9150509250929050565b60008060006060848603121561264957600080fd5b60006126578682870161253c565b93505060206126688682870161253c565b9250506040612679868287016125ba565b9150509250925092565b6000806000806080858703121561269957600080fd5b60006126a78782880161253c565b94505060206126b88782880161253c565b93505060406126c9878288016125ba565b925050606085013567ffffffffffffffff8111156126e657600080fd5b6126f287828801612590565b91505092959194509250565b6000806040838503121561271157600080fd5b600061271f8582860161253c565b925050602061273085828601612551565b9150509250929050565b6000806040838503121561274d57600080fd5b600061275b8582860161253c565b925050602061276c858286016125ba565b9150509250929050565b60006020828403121561278857600080fd5b600061279684828501612566565b91505092915050565b6000602082840312156127b157600080fd5b60006127bf8482850161257b565b91505092915050565b6000602082840312156127da57600080fd5b60006127e8848285016125ba565b91505092915050565b6127fa8161335d565b82525050565b6128098161336f565b82525050565b600061281a82613205565b612824818561321b565b93506128348185602086016133e0565b61283d816135ac565b840191505092915050565b600061285382613210565b61285d818561322c565b935061286d8185602086016133e0565b612876816135ac565b840191505092915050565b600061288c82613210565b612896818561323d565b93506128a68185602086016133e0565b80840191505092915050565b600081546128bf81613413565b6128c9818661323d565b945060018216600081146128e457600181146128f557612928565b60ff19831686528186019350612928565b6128fe856131f0565b60005b8381101561292057815481890152600182019150602081019050612901565b838801955050505b50505092915050565b600061293e60328361322c565b9150612949826135bd565b604082019050919050565b600061296160268361322c565b915061296c8261360c565b604082019050919050565b6000612984601c8361322c565b915061298f8261365b565b602082019050919050565b60006129a7604f8361323d565b91506129b282613684565b604f82019050919050565b60006129ca600a8361323d565b91506129d5826136f9565b600a82019050919050565b60006129ed60248361322c565b91506129f882613722565b604082019050919050565b6000612a1060198361322c565b9150612a1b82613771565b602082019050919050565b6000612a33600b8361323d565b9150612a3e8261379a565b600b82019050919050565b6000612a56602c8361322c565b9150612a61826137c3565b604082019050919050565b6000612a79600d8361323d565b9150612a8482613812565b600d82019050919050565b6000612a9c60388361322c565b9150612aa78261383b565b604082019050919050565b6000612abf602a8361322c565b9150612aca8261388a565b604082019050919050565b6000612ae260298361322c565b9150612aed826138d9565b604082019050919050565b6000612b05602e8361322c565b9150612b1082613928565b604082019050919050565b6000612b2860028361323d565b9150612b3382613977565b600282019050919050565b6000612b4b60208361322c565b9150612b56826139a0565b602082019050919050565b6000612b6e60318361322c565b9150612b79826139c9565b604082019050919050565b6000612b91602c8361322c565b9150612b9c82613a18565b604082019050919050565b6000612bb460208361322c565b9150612bbf82613a67565b602082019050919050565b6000612bd760298361322c565b9150612be282613a90565b604082019050919050565b6000612bfa602f8361322c565b9150612c0582613adf565b604082019050919050565b6000612c1d600a8361323d565b9150612c2882613b2e565b600a82019050919050565b6000612c4060218361322c565b9150612c4b82613b57565b604082019050919050565b6000612c63600a8361323d565b9150612c6e82613ba6565b600a82019050919050565b6000612c86601d8361323d565b9150612c9182613bcf565b601d82019050919050565b6000612ca960318361322c565b9150612cb482613bf8565b604082019050919050565b612cc8816133c7565b82525050565b6000612cda8284612881565b915081905092915050565b6000612cf18285612881565b9150612cfd8284612881565b91508190509392505050565b6000612d158286612881565b9150612d218285612881565b9150612d2d8284612881565b9150819050949350505050565b6000612d4682856128b2565b9150612d528284612881565b9150612d5d82612a6c565b91508190509392505050565b6000612d74826129bd565b9150612d808285612881565b9150612d8c8284612881565b91508190509392505050565b6000612da382612a26565b9150612daf8285612881565b9150612dbb8284612881565b91508190509392505050565b6000612dd282612c10565b9150612dde8285612881565b9150612de98261299a565b9150612df58284612881565b9150612e0082612b1b565b91508190509392505050565b6000612e1782612c56565b9150612e238285612881565b9150612e2f8284612881565b91508190509392505050565b6000612e4682612c79565b9150612e528284612881565b915081905092915050565b6000602082019050612e7260008301846127f1565b92915050565b6000608082019050612e8d60008301876127f1565b612e9a60208301866127f1565b612ea76040830185612cbf565b8181036060830152612eb9818461280f565b905095945050505050565b6000602082019050612ed96000830184612800565b92915050565b60006020820190508181036000830152612ef98184612848565b905092915050565b60006060820190508181036000830152612f1b8186612848565b9050612f2a6020830185612cbf565b612f3760408301846127f1565b949350505050565b60006020820190508181036000830152612f5881612931565b9050919050565b60006020820190508181036000830152612f7881612954565b9050919050565b60006020820190508181036000830152612f9881612977565b9050919050565b60006020820190508181036000830152612fb8816129e0565b9050919050565b60006020820190508181036000830152612fd881612a03565b9050919050565b60006020820190508181036000830152612ff881612a49565b9050919050565b6000602082019050818103600083015261301881612a8f565b9050919050565b6000602082019050818103600083015261303881612ab2565b9050919050565b6000602082019050818103600083015261305881612ad5565b9050919050565b6000602082019050818103600083015261307881612af8565b9050919050565b6000602082019050818103600083015261309881612b3e565b9050919050565b600060208201905081810360008301526130b881612b61565b9050919050565b600060208201905081810360008301526130d881612b84565b9050919050565b600060208201905081810360008301526130f881612ba7565b9050919050565b6000602082019050818103600083015261311881612bca565b9050919050565b6000602082019050818103600083015261313881612bed565b9050919050565b6000602082019050818103600083015261315881612c33565b9050919050565b6000602082019050818103600083015261317881612c9c565b9050919050565b60006020820190506131946000830184612cbf565b92915050565b60006131a46131b5565b90506131b08282613445565b919050565b6000604051905090565b600067ffffffffffffffff8211156131da576131d961357d565b5b6131e3826135ac565b9050602081019050919050565b60008190508160005260206000209050919050565b600081519050919050565b600081519050919050565b600082825260208201905092915050565b600082825260208201905092915050565b600081905092915050565b6000613253826133c7565b915061325e836133c7565b9250827fffffffffffffffffffffffffffffffffffffffffffffffffffffffffffffffff03821115613293576132926134f0565b5b828201905092915050565b60006132a9826133c7565b91506132b4836133c7565b9250826132c4576132c361351f565b5b828204905092915050565b60006132da826133c7565b91506132e5836133c7565b9250817fffffffffffffffffffffffffffffffffffffffffffffffffffffffffffffffff048311821515161561331e5761331d6134f0565b5b828202905092915050565b6000613334826133c7565b915061333f836133c7565b925082821015613352576133516134f0565b5b828203905092915050565b6000613368826133a7565b9050919050565b60008115159050919050565b60007fffffffff0000000000000000000000000000000000000000000000000000000082169050919050565b600073ffffffffffffffffffffffffffffffffffffffff82169050919050565b6000819050919050565b82818337600083830152505050565b60005b838110156133fe5780820151818401526020810190506133e3565b8381111561340d576000848401525b50505050565b6000600282049050600182168061342b57607f821691505b6020821081141561343f5761343e61354e565b5b50919050565b61344e826135ac565b810181811067ffffffffffffffff8211171561346d5761346c61357d565b5b80604052505050565b6000613481826133c7565b91507fffffffffffffffffffffffffffffffffffffffffffffffffffffffffffffffff8214156134b4576134b36134f0565b5b600182019050919050565b60006134ca826133c7565b91506134d5836133c7565b9250826134e5576134e461351f565b5b828206905092915050565b7f4e487b7100000000000000000000000000000000000000000000000000000000600052601160045260246000fd5b7f4e487b7100000000000000000000000000000000000000000000000000000000600052601260045260246000fd5b7f4e487b7100000000000000000000000000000000000000000000000000000000600052602260045260246000fd5b7f4e487b7100000000000000000000000000000000000000000000000000000000600052604160045260246000fd5b6000601f19601f8301169050919050565b7f4552433732313a207472616e7366657220746f206e6f6e20455243373231526560008201527f63656976657220696d706c656d656e7465720000000000000000000000000000602082015250565b7f4f776e61626c653a206e6577206f776e657220697320746865207a65726f206160008201527f6464726573730000000000000000000000000000000000000000000000000000602082015250565b7f4552433732313a20746f6b656e20616c7265616479206d696e74656400000000600082015250565b7f222c20226465736372697074696f6e223a202241205f6275696c64737061636560008201527f20506f6b656d6f6e222c2022696d616765223a2022646174613a696d6167652f60208201527f7376672b786d6c3b6261736536342c0000000000000000000000000000000000604082015250565b7f54484952445f574f524400000000000000000000000000000000000000000000600082015250565b7f4552433732313a207472616e7366657220746f20746865207a65726f2061646460008201527f7265737300000000000000000000000000000000000000000000000000000000602082015250565b7f4552433732313a20617070726f766520746f2063616c6c657200000000000000600082015250565b7f5345434f4e445f574f5244000000000000000000000000000000000000000000600082015250565b7f4552433732313a206f70657261746f7220717565727920666f72206e6f6e657860008201527f697374656e7420746f6b656e0000000000000000000000000000000000000000602082015250565b7f3c2f746578743e3c2f7376673e00000000000000000000000000000000000000600082015250565b7f4552433732313a20617070726f76652063616c6c6572206973206e6f74206f7760008201527f6e6572206e6f7220617070726f76656420666f7220616c6c0000000000000000602082015250565b7f4552433732313a2062616c616e636520717565727920666f7220746865207a6560008201527f726f206164647265737300000000000000000000000000000000000000000000602082015250565b7f4552433732313a206f776e657220717565727920666f72206e6f6e657869737460008201527f656e7420746f6b656e0000000000000000000000000000000000000000000000602082015250565b7f45524337323155524953746f726167653a2055524920736574206f66206e6f6e60008201527f6578697374656e7420746f6b656e000000000000000000000000000000000000602082015250565b7f227d000000000000000000000000000000000000000000000000000000000000600082015250565b7f4552433732313a206d696e7420746f20746865207a65726f2061646472657373600082015250565b7f45524337323155524953746f726167653a2055524920717565727920666f722060008201527f6e6f6e6578697374656e7420746f6b656e000000000000000000000000000000602082015250565b7f4552433732313a20617070726f76656420717565727920666f72206e6f6e657860008201527f697374656e7420746f6b656e0000000000000000000000000000000000000000602082015250565b7f4f776e61626c653a2063616c6c6572206973206e6f7420746865206f776e6572600082015250565b7f4552433732313a207472616e73666572206f6620746f6b656e2074686174206960008201527f73206e6f74206f776e0000000000000000000000000000000000000000000000602082015250565b7f4552433732314d657461646174613a2055524920717565727920666f72206e6f60008201527f6e6578697374656e7420746f6b656e0000000000000000000000000000000000602082015250565b7f7b226e616d65223a202200000000000000000000000000000000000000000000600082015250565b7f4552433732313a20617070726f76616c20746f2063757272656e74206f776e6560008201527f7200000000000000000000000000000000000000000000000000000000000000602082015250565b7f46495253545f574f524400000000000000000000000000000000000000000000600082015250565b7f646174613a6170706c69636174696f6e2f6a736f6e3b6261736536342c000000600082015250565b7f4552433732313a207472616e736665722063616c6c6572206973206e6f74206f60008201527f776e6572206e6f7220617070726f766564000000000000000000000000000000602082015250565b613c508161335d565b8114613c5b57600080fd5b50565b613c678161336f565b8114613c7257600080fd5b50565b613c7e8161337b565b8114613c8957600080fd5b50565b613c95816133c7565b8114613ca057600080fd5b5056fe416e204e465420772f20494420257320686173206265656e206d696e74656420746f2025734142434445464748494a4b4c4d4e4f505152535455565758595a6162636465666768696a6b6c6d6e6f707172737475767778797a303132333435363738392b2fa26469706673582212205971cdda96f8ff4010b8c7ce75b020ac1007a638a6e3ab2658dddddfc8e0a3d264736f6c634300080400333c73766720786d6c6e733d27687474703a2f2f7777772e77332e6f72672f323030302f73766727207072657365727665417370656374526174696f3d27784d696e594d696e206d656574272076696577426f783d273020302033353020333530273e3c7374796c653e2e62617365207b2066696c6c3a2077686974653b20666f6e742d66616d696c793a2073657269663b20666f6e742d73697a653a20323470783b207d3c2f7374796c653e3c726563742077696474683d273130302527206865696768743d2731303025272066696c6c3d27626c61636b27202f3e3c7465787420783d273530252720793d273530252720636c6173733d27626173652720646f6d696e616e742d626173656c696e653d276d6964646c652720746578742d616e63686f723d276d6964646c65273e",
  "linkReferences": {},
  "deployedLinkReferences": {}
}