{
  "_format": "hh-sol-artifact-1",
  "contractName": "PokemonNFT",
  "sourceName": "contracts/Pokemon.sol",
  "abi": [
    {
      "inputs": [],
      "stateMutability": "payable",
      "type": "constructor"
    },
    {
      "anonymous": false,
      "inputs": [
        {
          "indexed": true,
          "internalType": "address",
          "name": "owner",
          "type": "address"
        },
        {
          "indexed": true,
          "internalType": "address",
          "name": "approved",
          "type": "address"
        },
        {
          "indexed": true,
          "internalType": "uint256",
          "name": "tokenId",
          "type": "uint256"
        }
      ],
      "name": "Approval",
      "type": "event"
    },
    {
      "anonymous": false,
      "inputs": [
        {
          "indexed": true,
          "internalType": "address",
          "name": "owner",
          "type": "address"
        },
        {
          "indexed": true,
          "internalType": "address",
          "name": "operator",
          "type": "address"
        },
        {
          "indexed": false,
          "internalType": "bool",
          "name": "approved",
          "type": "bool"
        }
      ],
      "name": "ApprovalForAll",
      "type": "event"
    },
    {
      "anonymous": false,
      "inputs": [
        {
          "indexed": false,
          "internalType": "address",
          "name": "sender",
          "type": "address"
        },
        {
          "indexed": false,
          "internalType": "uint256",
          "name": "tokenId",
          "type": "uint256"
        }
      ],
      "name": "NewPokemonNFTMinted",
      "type": "event"
    },
    {
      "anonymous": false,
      "inputs": [
        {
          "indexed": false,
          "internalType": "address",
          "name": "sender",
          "type": "address"
        },
        {
          "indexed": false,
          "internalType": "string",
          "name": "pokemon",
          "type": "string"
        }
      ],
      "name": "NewShinyPokemonSpeciesDiscovered",
      "type": "event"
    },
    {
      "anonymous": false,
      "inputs": [
        {
          "indexed": true,
          "internalType": "address",
          "name": "previousOwner",
          "type": "address"
        },
        {
          "indexed": true,
          "internalType": "address",
          "name": "newOwner",
          "type": "address"
        }
      ],
      "name": "OwnershipTransferred",
      "type": "event"
    },
    {
      "anonymous": false,
      "inputs": [
        {
          "indexed": true,
          "internalType": "address",
          "name": "from",
          "type": "address"
        },
        {
          "indexed": true,
          "internalType": "address",
          "name": "to",
          "type": "address"
        },
        {
          "indexed": true,
          "internalType": "uint256",
          "name": "tokenId",
          "type": "uint256"
        }
      ],
      "name": "Transfer",
      "type": "event"
    },
    {
      "inputs": [
        {
          "internalType": "address",
          "name": "to",
          "type": "address"
        },
        {
          "internalType": "uint256",
          "name": "tokenId",
          "type": "uint256"
        }
      ],
      "name": "approve",
      "outputs": [],
      "stateMutability": "nonpayable",
      "type": "function"
    },
    {
      "inputs": [
        {
          "internalType": "address",
          "name": "owner",
          "type": "address"
        }
      ],
      "name": "balanceOf",
      "outputs": [
        {
          "internalType": "uint256",
          "name": "",
          "type": "uint256"
        }
      ],
      "stateMutability": "view",
      "type": "function"
    },
    {
      "inputs": [
        {
          "internalType": "uint256",
          "name": "tokenId",
          "type": "uint256"
        }
      ],
      "name": "getApproved",
      "outputs": [
        {
          "internalType": "address",
          "name": "",
          "type": "address"
        }
      ],
      "stateMutability": "view",
      "type": "function"
    },
    {
      "inputs": [],
      "name": "getShinyHunters",
      "outputs": [
        {
          "components": [
            {
              "internalType": "address",
              "name": "winner",
              "type": "address"
            },
            {
              "internalType": "string",
              "name": "pokemon",
              "type": "string"
            }
          ],
          "internalType": "struct PokemonNFT.ShinyHunter[]",
          "name": "",
          "type": "tuple[]"
        }
      ],
      "stateMutability": "view",
      "type": "function"
    },
    {
      "inputs": [
        {
          "internalType": "address",
          "name": "owner",
          "type": "address"
        },
        {
          "internalType": "address",
          "name": "operator",
          "type": "address"
        }
      ],
      "name": "isApprovedForAll",
      "outputs": [
        {
          "internalType": "bool",
          "name": "",
          "type": "bool"
        }
      ],
      "stateMutability": "view",
      "type": "function"
    },
    {
      "inputs": [],
      "name": "mintNFT",
      "outputs": [],
      "stateMutability": "nonpayable",
      "type": "function"
    },
    {
      "inputs": [],
      "name": "name",
      "outputs": [
        {
          "internalType": "string",
          "name": "",
          "type": "string"
        }
      ],
      "stateMutability": "view",
      "type": "function"
    },
    {
      "inputs": [],
      "name": "owner",
      "outputs": [
        {
          "internalType": "address",
          "name": "",
          "type": "address"
        }
      ],
      "stateMutability": "view",
      "type": "function"
    },
    {
      "inputs": [
        {
          "internalType": "uint256",
          "name": "tokenId",
          "type": "uint256"
        }
      ],
      "name": "ownerOf",
      "outputs": [
        {
          "internalType": "address",
          "name": "",
          "type": "address"
        }
      ],
      "stateMutability": "view",
      "type": "function"
    },
    {
      "inputs": [
        {
          "internalType": "uint256",
          "name": "tokenId",
          "type": "uint256"
        }
      ],
      "name": "pickRandomFirstWord",
      "outputs": [
        {
          "internalType": "string",
          "name": "",
          "type": "string"
        }
      ],
      "stateMutability": "view",
      "type": "function"
    },
    {
      "inputs": [
        {
          "internalType": "uint256",
          "name": "tokenId",
          "type": "uint256"
        }
      ],
      "name": "pickRandomSecondWord",
      "outputs": [
        {
          "internalType": "string",
          "name": "secondWord",
          "type": "string"
        },
        {
          "internalType": "string",
          "name": "color",
          "type": "string"
        }
      ],
      "stateMutability": "view",
      "type": "function"
    },
    {
      "inputs": [
        {
          "internalType": "uint256",
          "name": "tokenId",
          "type": "uint256"
        }
      ],
      "name": "pickRandomThirdWord",
      "outputs": [
        {
          "internalType": "string",
          "name": "",
          "type": "string"
        }
      ],
      "stateMutability": "view",
      "type": "function"
    },
    {
      "inputs": [],
      "name": "renounceOwnership",
      "outputs": [],
      "stateMutability": "nonpayable",
      "type": "function"
    },
    {
      "inputs": [
        {
          "internalType": "address",
          "name": "from",
          "type": "address"
        },
        {
          "internalType": "address",
          "name": "to",
          "type": "address"
        },
        {
          "internalType": "uint256",
          "name": "tokenId",
          "type": "uint256"
        }
      ],
      "name": "safeTransferFrom",
      "outputs": [],
      "stateMutability": "nonpayable",
      "type": "function"
    },
    {
      "inputs": [
        {
          "internalType": "address",
          "name": "from",
          "type": "address"
        },
        {
          "internalType": "address",
          "name": "to",
          "type": "address"
        },
        {
          "internalType": "uint256",
          "name": "tokenId",
          "type": "uint256"
        },
        {
          "internalType": "bytes",
          "name": "_data",
          "type": "bytes"
        }
      ],
      "name": "safeTransferFrom",
      "outputs": [],
      "stateMutability": "nonpayable",
      "type": "function"
    },
    {
      "inputs": [
        {
          "internalType": "address",
          "name": "operator",
          "type": "address"
        },
        {
          "internalType": "bool",
          "name": "approved",
          "type": "bool"
        }
      ],
      "name": "setApprovalForAll",
      "outputs": [],
      "stateMutability": "nonpayable",
      "type": "function"
    },
    {
      "inputs": [
        {
          "internalType": "string",
          "name": "",
          "type": "string"
        }
      ],
      "name": "speciesFound",
      "outputs": [
        {
          "internalType": "bool",
          "name": "",
          "type": "bool"
        }
      ],
      "stateMutability": "view",
      "type": "function"
    },
    {
      "inputs": [
        {
          "internalType": "bytes4",
          "name": "interfaceId",
          "type": "bytes4"
        }
      ],
      "name": "supportsInterface",
      "outputs": [
        {
          "internalType": "bool",
          "name": "",
          "type": "bool"
        }
      ],
      "stateMutability": "view",
      "type": "function"
    },
    {
      "inputs": [],
      "name": "symbol",
      "outputs": [
        {
          "internalType": "string",
          "name": "",
          "type": "string"
        }
      ],
      "stateMutability": "view",
      "type": "function"
    },
    {
      "inputs": [
        {
          "internalType": "uint256",
          "name": "tokenId",
          "type": "uint256"
        }
      ],
      "name": "tokenURI",
      "outputs": [
        {
          "internalType": "string",
          "name": "",
          "type": "string"
        }
      ],
      "stateMutability": "view",
      "type": "function"
    },
    {
      "inputs": [
        {
          "internalType": "address",
          "name": "from",
          "type": "address"
        },
        {
          "internalType": "address",
          "name": "to",
          "type": "address"
        },
        {
          "internalType": "uint256",
          "name": "tokenId",
          "type": "uint256"
        }
      ],
      "name": "transferFrom",
      "outputs": [],
      "stateMutability": "nonpayable",
      "type": "function"
    },
    {
      "inputs": [
        {
          "internalType": "address",
          "name": "newOwner",
          "type": "address"
        }
      ],
      "name": "transferOwnership",
      "outputs": [],
      "stateMutability": "nonpayable",
      "type": "function"
    }
  ],
  "bytecode": "0x608060405260405180610100016040528060d381526020016200609660d39139600b90805190602001906200003692919062001566565b506040518060800160405280605681526020016200616960569139600c90805190602001906200006892919062001566565b50604051806101a001604052806040518060400160405280600681526020017f477265617420000000000000000000000000000000000000000000000000000081525081526020016040518060400160405280600681526020017f4c6172676520000000000000000000000000000000000000000000000000000081525081526020016040518060400160405280600681526020017f536d616c6c20000000000000000000000000000000000000000000000000000081525081526020016040518060400160405280600881526020017f416d617a696e672000000000000000000000000000000000000000000000000081525081526020016040518060400160405280600981526020017f546572726966696320000000000000000000000000000000000000000000000081525081526020016040518060400160405280600b81526020017f496e6372656469626c652000000000000000000000000000000000000000000081525081526020016040518060400160405280600481526020017f466174200000000000000000000000000000000000000000000000000000000081525081526020016040518060400160405280600681526020017f536c696d7920000000000000000000000000000000000000000000000000000081525081526020016040518060400160405280600881526020017f506c617966756c2000000000000000000000000000000000000000000000000081525081526020016040518060400160405280600c81526020017f436f6e736964657261746520000000000000000000000000000000000000000081525081526020016040518060400160405280600781526020017f536e65616b79200000000000000000000000000000000000000000000000000081525081526020016040518060400160405280600981526020017f50726f646967616c20000000000000000000000000000000000000000000000081525081526020016040518060400160405280600681526020017f426f726564200000000000000000000000000000000000000000000000000000815250815250600d90600d62000384929190620015f7565b506040518061028001604052806040518060400160405280600481526020017f526564200000000000000000000000000000000000000000000000000000000081525081526020016040518060400160405280600681526020017f477265656e20000000000000000000000000000000000000000000000000000081525081526020016040518060400160405280600781526020017f59656c6c6f77200000000000000000000000000000000000000000000000000081525081526020016040518060400160405280600781526020017f507572706c65200000000000000000000000000000000000000000000000000081525081526020016040518060400160405280600581526020017f426c75652000000000000000000000000000000000000000000000000000000081525081526020016040518060400160405280600781526020017f56696f6c6574200000000000000000000000000000000000000000000000000081525081526020016040518060400160405280600781526020017f4f72616e6765200000000000000000000000000000000000000000000000000081525081526020016040518060400160405280600681526020017f5368696e7920000000000000000000000000000000000000000000000000000081525081526020016040518060400160405280600581526020017f4d696e742000000000000000000000000000000000000000000000000000000081525081526020016040518060400160405280600981526020017f4c6176656e64657220000000000000000000000000000000000000000000000081525081526020016040518060400160405280600581526020017f50696e6b2000000000000000000000000000000000000000000000000000000081525081526020016040518060400160405280600881526020017f4372696d736f6e2000000000000000000000000000000000000000000000000081525081526020016040518060400160405280600781526020017f4d61726f6f6e200000000000000000000000000000000000000000000000000081525081526020016040518060400160405280600681526020017f426c61636b20000000000000000000000000000000000000000000000000000081525081526020016040518060400160405280600681526020017f576869746520000000000000000000000000000000000000000000000000000081525081526020016040518060400160405280600781526020017f496e6469676f200000000000000000000000000000000000000000000000000081525081526020016040518060400160405280600681526020017f42726f776e20000000000000000000000000000000000000000000000000000081525081526020016040518060400160405280600981526020017f43686172636f616c20000000000000000000000000000000000000000000000081525081526020016040518060400160405280600981526020017f4567677368656c6c20000000000000000000000000000000000000000000000081525081526020016040518060400160405280600581526020017f4e61767920000000000000000000000000000000000000000000000000000000815250815250600e9060146200083d9291906200165e565b506040518061032001604052806040518060400160405280600881526020017f5261797175617a6100000000000000000000000000000000000000000000000081525081526020016040518060400160405280600781526020017f50696b616368750000000000000000000000000000000000000000000000000081525081526020016040518060400160405280600881526020017f47617263686f6d7000000000000000000000000000000000000000000000000081525081526020016040518060400160405280600981526020017f496e6665726e617065000000000000000000000000000000000000000000000081525081526020016040518060400160405280600781526020017f4269626172656c0000000000000000000000000000000000000000000000000081525081526020016040518060400160405280600881526020017f466c6f61747a656c00000000000000000000000000000000000000000000000081525081526020016040518060400160405280600981526020017f43686172697a617264000000000000000000000000000000000000000000000081525081526020016040518060400160405280600981526020017f426c6173746f697365000000000000000000000000000000000000000000000081525081526020016040518060400160405280600881526020017f56656e757361757200000000000000000000000000000000000000000000000081525081526020016040518060400160405280600681526020017f417263657573000000000000000000000000000000000000000000000000000081525081526020016040518060400160405280600681526020017f5a616369616e000000000000000000000000000000000000000000000000000081525081526020016040518060400160405280600981526020017f42617374696f646f6e000000000000000000000000000000000000000000000081525081526020016040518060400160405280600a81526020017f496e63696e65726f61720000000000000000000000000000000000000000000081525081526020016040518060400160405280600881526020017f5363657074696c6500000000000000000000000000000000000000000000000081525081526020016040518060400160405280600581526020017f4c7567696100000000000000000000000000000000000000000000000000000081525081526020016040518060400160405280600781526020017f536379746865720000000000000000000000000000000000000000000000000081525081526020016040518060400160405280600781526020017f5976656c74616c0000000000000000000000000000000000000000000000000081525081526020016040518060400160405280600781526020017f5865726e6561730000000000000000000000000000000000000000000000000081525081526020016040518060400160405280600681526020017f4b797572656d000000000000000000000000000000000000000000000000000081525081526020016040518060400160405280600681526020017f4469616c6761000000000000000000000000000000000000000000000000000081525081526020016040518060400160405280600681526020017f50616c6b6961000000000000000000000000000000000000000000000000000081525081526020016040518060400160405280600781526020017f47726f75646f6e0000000000000000000000000000000000000000000000000081525081526020016040518060400160405280600681526020017f4b796f677265000000000000000000000000000000000000000000000000000081525081526020016040518060400160405280600881526020017f4d6167696b61727000000000000000000000000000000000000000000000000081525081526020016040518060400160405280600981526020017f5061636869726973750000000000000000000000000000000000000000000000815250815250600f90601962000e1d929190620016c5565b506040518061028001604052806040518060400160405280600381526020017f726564000000000000000000000000000000000000000000000000000000000081525081526020016040518060400160405280600581526020017f677265656e00000000000000000000000000000000000000000000000000000081525081526020016040518060400160405280600681526020017f79656c6c6f77000000000000000000000000000000000000000000000000000081525081526020016040518060400160405280600781526020017f233830303038300000000000000000000000000000000000000000000000000081525081526020016040518060400160405280600481526020017f626c75650000000000000000000000000000000000000000000000000000000081525081526020016040518060400160405280600781526020017f233766303066660000000000000000000000000000000000000000000000000081525081526020016040518060400160405280600781526020017f234646413530300000000000000000000000000000000000000000000000000081525081526020016040518060400160405280600781526020017f234646443730300000000000000000000000000000000000000000000000000081525081526020016040518060400160405280600781526020017f236161663064310000000000000000000000000000000000000000000000000081525081526020016040518060400160405280600781526020017f236536653666610000000000000000000000000000000000000000000000000081525081526020016040518060400160405280600781526020017f234646433043420000000000000000000000000000000000000000000000000081525081526020016040518060400160405280600781526020017f234443313433430000000000000000000000000000000000000000000000000081525081526020016040518060400160405280600781526020017f233830303030300000000000000000000000000000000000000000000000000081525081526020016040518060400160405280600581526020017f626c61636b00000000000000000000000000000000000000000000000000000081525081526020016040518060400160405280600781526020017f236464646464640000000000000000000000000000000000000000000000000081525081526020016040518060400160405280600781526020017f233442303038320000000000000000000000000000000000000000000000000081525081526020016040518060400160405280600781526020017f233936344230300000000000000000000000000000000000000000000000000081525081526020016040518060400160405280600781526020017f233336343534460000000000000000000000000000000000000000000000000081525081526020016040518060400160405280600781526020017f236262626262620000000000000000000000000000000000000000000000000081525081526020016040518060400160405280600781526020017f23303030303830000000000000000000000000000000000000000000000000008152508152506010906014620012d69291906200165e565b506040518060400160405280601381526020017f5f6275696c64737061636520506f6b656d6f6e000000000000000000000000008152506040518060400160405280600581526020017f42504b4d4e00000000000000000000000000000000000000000000000000000081525081600090805190602001906200135b92919062001566565b5080600190805190602001906200137492919062001566565b505050620013976200138b620013cc60201b60201c565b620013d460201b60201c565b620013c66040518060600160405280603e815260200162006058603e91396200149a60201b620019991760201c565b620018e6565b600033905090565b6000600760009054906101000a900473ffffffffffffffffffffffffffffffffffffffff16905081600760006101000a81548173ffffffffffffffffffffffffffffffffffffffff021916908373ffffffffffffffffffffffffffffffffffffffff1602179055508173ffffffffffffffffffffffffffffffffffffffff168173ffffffffffffffffffffffffffffffffffffffff167f8be0079c531659141344cd1fd0a4f28419497f9722a3daafe3b4186f6b6457e060405160405180910390a35050565b6200153a81604051602401620014b19190620017fa565b6040516020818303038152906040527f41304fac000000000000000000000000000000000000000000000000000000007bffffffffffffffffffffffffffffffffffffffffffffffffffffffff19166020820180517bffffffffffffffffffffffffffffffffffffffffffffffffffffffff83818316178352505050506200153d60201b60201c565b50565b60008151905060006a636f6e736f6c652e6c6f679050602083016000808483855afa5050505050565b828054620015749062001870565b90600052602060002090601f016020900481019282620015985760008555620015e4565b82601f10620015b357805160ff1916838001178555620015e4565b82800160010185558215620015e4579182015b82811115620015e3578251825591602001919060010190620015c6565b5b509050620015f391906200172c565b5090565b8280548282559060005260206000209081019282156200164b579160200282015b828111156200164a5782518290805190602001906200163992919062001566565b509160200191906001019062001618565b5b5090506200165a91906200174b565b5090565b828054828255906000526020600020908101928215620016b2579160200282015b82811115620016b1578251829080519060200190620016a092919062001566565b50916020019190600101906200167f565b5b509050620016c191906200174b565b5090565b82805482825590600052602060002090810192821562001719579160200282015b82811115620017185782518290805190602001906200170792919062001566565b5091602001919060010190620016e6565b5b5090506200172891906200174b565b5090565b5b80821115620017475760008160009055506001016200172d565b5090565b5b808211156200176f576000818162001765919062001773565b506001016200174c565b5090565b508054620017819062001870565b6000825580601f10620017955750620017b6565b601f016020900490600052602060002090810190620017b591906200172c565b5b50565b6000620017c6826200181e565b620017d2818562001829565b9350620017e48185602086016200183a565b620017ef81620018d5565b840191505092915050565b60006020820190508181036000830152620018168184620017b9565b905092915050565b600081519050919050565b600082825260208201905092915050565b60005b838110156200185a5780820151818401526020810190506200183d565b838111156200186a576000848401525b50505050565b600060028204905060018216806200188957607f821691505b60208210811415620018a0576200189f620018a6565b5b50919050565b7f4e487b7100000000000000000000000000000000000000000000000000000000600052602260045260246000fd5b6000601f19601f8301169050919050565b61476280620018f66000396000f3fe608060405234801561001057600080fd5b50600436106101425760003560e01c8063715018a6116100b8578063b187301f1161007c578063b187301f14610363578063b88d4fde14610394578063c575757a146103b0578063c87b56dd146103e0578063e985e9c514610410578063f2fde38b1461044057610142565b8063715018a6146102d15780638da5cb5b146102db57806395d89b41146102f9578063a22cb46514610317578063ab8688be1461033357610142565b80631eedad201161010a5780631eedad20146101eb57806323b872dd146102095780632de38d681461022557806342842e0e146102555780636352211e1461027157806370a08231146102a157610142565b806301ffc9a71461014757806306fdde0314610177578063081812fc14610195578063095ea7b3146101c557806314f710fe146101e1575b600080fd5b610161600480360381019061015c9190612dfc565b61045c565b60405161016e919061379e565b60405180910390f35b61017f61053e565b60405161018c91906137b9565b60405180910390f35b6101af60048036038101906101aa9190612e8f565b6105d0565b6040516101bc91906136bc565b60405180910390f35b6101df60048036038101906101da9190612dc0565b610655565b005b6101e961076d565b005b6101f3610bdf565b604051610200919061377c565b60405180910390f35b610223600480360381019061021e9190612cba565b610d26565b005b61023f600480360381019061023a9190612e8f565b610d86565b60405161024c91906137b9565b60405180910390f35b61026f600480360381019061026a9190612cba565b610eae565b005b61028b60048036038101906102869190612e8f565b610ece565b60405161029891906136bc565b60405180910390f35b6102bb60048036038101906102b69190612c55565b610f80565b6040516102c89190613af1565b60405180910390f35b6102d9611038565b005b6102e36110c0565b6040516102f091906136bc565b60405180910390f35b6103016110ea565b60405161030e91906137b9565b60405180910390f35b610331600480360381019061032c9190612d84565b61117c565b005b61034d60048036038101906103489190612e4e565b6112fd565b60405161035a919061379e565b60405180910390f35b61037d60048036038101906103789190612e8f565b611333565b60405161038b9291906137db565b60405180910390f35b6103ae60048036038101906103a99190612d09565b611531565b005b6103ca60048036038101906103c59190612e8f565b611593565b6040516103d791906137b9565b60405180910390f35b6103fa60048036038101906103f59190612e8f565b6116bb565b60405161040791906137b9565b60405180910390f35b61042a60048036038101906104259190612c7e565b61180d565b604051610437919061379e565b60405180910390f35b61045a60048036038101906104559190612c55565b6118a1565b005b60007f80ac58cd000000000000000000000000000000000000000000000000000000007bffffffffffffffffffffffffffffffffffffffffffffffffffffffff1916827bffffffffffffffffffffffffffffffffffffffffffffffffffffffff1916148061052757507f5b5e139f000000000000000000000000000000000000000000000000000000007bffffffffffffffffffffffffffffffffffffffffffffffffffffffff1916827bffffffffffffffffffffffffffffffffffffffffffffffffffffffff1916145b80610537575061053682611a32565b5b9050919050565b60606000805461054d90613e0b565b80601f016020809104026020016040519081016040528092919081815260200182805461057990613e0b565b80156105c65780601f1061059b576101008083540402835291602001916105c6565b820191906000526020600020905b8154815290600101906020018083116105a957829003601f168201915b5050505050905090565b60006105db82611a9c565b61061a576040517f08c379a000000000000000000000000000000000000000000000000000000000815260040161061190613a31565b60405180910390fd5b6004600083815260200190815260200160002060009054906101000a900473ffffffffffffffffffffffffffffffffffffffff169050919050565b600061066082610ece565b90508073ffffffffffffffffffffffffffffffffffffffff168373ffffffffffffffffffffffffffffffffffffffff1614156106d1576040517f08c379a00000000000000000000000000000000000000000000000000000000081526004016106c890613ab1565b60405180910390fd5b8073ffffffffffffffffffffffffffffffffffffffff166106f0611b08565b73ffffffffffffffffffffffffffffffffffffffff16148061071f575061071e81610719611b08565b61180d565b5b61075e576040517f08c379a000000000000000000000000000000000000000000000000000000000815260040161075590613971565b60405180910390fd5b6107688383611b10565b505050565b60006107796008611bc9565b9050600061078682610d86565b905060608061079484611333565b809250819350505060006107a785611593565b905060008484836040516020016107c093929190613524565b60405160208183030381529060405290506000600b84600c846040516020016107ec9493929190613555565b604051602081830303815290604052905060006108318361080c84611bd7565b60405160200161081d929190613611565b604051602081830303815290604052611bd7565b90506000816040516020016108469190613685565b60405160208183030381529060405290506108956040518060400160405280601581526020017f0a2d2d2d2d2d2d2d2d2d2d2d2d2d2d2d2d2d2d2d2d0000000000000000000000815250611999565b61089e81611999565b6108dc6040518060400160405280601581526020017f2d2d2d2d2d2d2d2d2d2d2d2d2d2d2d2d2d2d2d2d0a0000000000000000000000815250611999565b6108e6338a611d95565b6108f08982611db3565b6109316040518060400160405280601381526020017f4e657720506f6b656d6f6e20466f756e643a200000000000000000000000000081525086898b611e27565b60098560405161094191906134e9565b908152602001604051809103902060009054906101000a900460ff161580156109b357506040516020016109749061359e565b604051602081830303815290604052805190602001208760405160200161099b91906134e9565b60405160208183030381529060405280519060200120145b15610b6e5760016009866040516109ca91906134e9565b908152602001604051809103902060006101000a81548160ff021916908315150217905550600a60405180604001604052803373ffffffffffffffffffffffffffffffffffffffff16815260200187815250908060018154018082558091505060019003906000526020600020906002020160009091909190915060008201518160000160006101000a81548173ffffffffffffffffffffffffffffffffffffffff021916908373ffffffffffffffffffffffffffffffffffffffff1602179055506020820151816001019080519060200190610aa8929190612a79565b5050506000662386f26fc100009050478111610b6c5760003373ffffffffffffffffffffffffffffffffffffffff1682604051610ae4906136a7565b60006040518083038185875af1925050503d8060008114610b21576040519150601f19603f3d011682016040523d82523d6000602084013e610b26565b606091505b505090508015610b6a577fe74b3229a282a8fd1e7beeca8c85b48f50f13ec9f103bd38bbe47adfb1787a9e3388604051610b61929190613723565b60405180910390a15b505b505b610b786008611ec9565b610b9b6040518060600160405280602581526020016146c8602591398a33611edf565b7f6bb560e71ec33949f6939aee8f349c713c8833d95b4e322cccc0294b9cd6211a338a604051610bcc929190613753565b60405180910390a1505050505050505050565b6060600a805480602002602001604051908101604052809291908181526020016000905b82821015610d1d57838290600052602060002090600202016040518060400160405290816000820160009054906101000a900473ffffffffffffffffffffffffffffffffffffffff1673ffffffffffffffffffffffffffffffffffffffff1673ffffffffffffffffffffffffffffffffffffffff168152602001600182018054610c8c90613e0b565b80601f0160208091040260200160405190810160405280929190818152602001828054610cb890613e0b565b8015610d055780601f10610cda57610100808354040283529160200191610d05565b820191906000526020600020905b815481529060010190602001808311610ce857829003601f168201915b50505050508152505081526020019060010190610c03565b50505050905090565b610d37610d31611b08565b82611f7e565b610d76576040517f08c379a0000000000000000000000000000000000000000000000000000000008152600401610d6d90613ad1565b60405180910390fd5b610d8183838361205c565b505050565b60606000610dc4610d96846122b8565b610d9f426122b8565b604051602001610db0929190613656565b604051602081830303815290604052612465565b9050600d8054905081610dd79190613eb7565b9050600d8181548110610e13577f4e487b7100000000000000000000000000000000000000000000000000000000600052603260045260246000fd5b906000526020600020018054610e2890613e0b565b80601f0160208091040260200160405190810160405280929190818152602001828054610e5490613e0b565b8015610ea15780601f10610e7657610100808354040283529160200191610ea1565b820191906000526020600020905b815481529060010190602001808311610e8457829003601f168201915b5050505050915050919050565b610ec983838360405180602001604052806000815250611531565b505050565b6000806002600084815260200190815260200160002060009054906101000a900473ffffffffffffffffffffffffffffffffffffffff169050600073ffffffffffffffffffffffffffffffffffffffff168173ffffffffffffffffffffffffffffffffffffffff161415610f77576040517f08c379a0000000000000000000000000000000000000000000000000000000008152600401610f6e906139b1565b60405180910390fd5b80915050919050565b60008073ffffffffffffffffffffffffffffffffffffffff168273ffffffffffffffffffffffffffffffffffffffff161415610ff1576040517f08c379a0000000000000000000000000000000000000000000000000000000008152600401610fe890613991565b60405180910390fd5b600360008373ffffffffffffffffffffffffffffffffffffffff1673ffffffffffffffffffffffffffffffffffffffff168152602001908152602001600020549050919050565b611040611b08565b73ffffffffffffffffffffffffffffffffffffffff1661105e6110c0565b73ffffffffffffffffffffffffffffffffffffffff16146110b4576040517f08c379a00000000000000000000000000000000000000000000000000000000081526004016110ab90613a51565b60405180910390fd5b6110be6000612498565b565b6000600760009054906101000a900473ffffffffffffffffffffffffffffffffffffffff16905090565b6060600180546110f990613e0b565b80601f016020809104026020016040519081016040528092919081815260200182805461112590613e0b565b80156111725780601f1061114757610100808354040283529160200191611172565b820191906000526020600020905b81548152906001019060200180831161115557829003601f168201915b5050505050905090565b611184611b08565b73ffffffffffffffffffffffffffffffffffffffff168273ffffffffffffffffffffffffffffffffffffffff1614156111f2576040517f08c379a00000000000000000000000000000000000000000000000000000000081526004016111e990613931565b60405180910390fd5b80600560006111ff611b08565b73ffffffffffffffffffffffffffffffffffffffff1673ffffffffffffffffffffffffffffffffffffffff16815260200190815260200160002060008473ffffffffffffffffffffffffffffffffffffffff1673ffffffffffffffffffffffffffffffffffffffff16815260200190815260200160002060006101000a81548160ff0219169083151502179055508173ffffffffffffffffffffffffffffffffffffffff166112ac611b08565b73ffffffffffffffffffffffffffffffffffffffff167f17307eab39ab6107e8899845ad3d59bd9653f200f220920489ca2b5937696c31836040516112f1919061379e565b60405180910390a35050565b6009818051602081018201805184825260208301602085012081835280955050505050506000915054906101000a900460ff1681565b6060806000611372611344856122b8565b61134d426122b8565b60405160200161135e9291906135e2565b604051602081830303815290604052612465565b9050600e80549050816113859190613eb7565b9050600e81815481106113c1577f4e487b7100000000000000000000000000000000000000000000000000000000600052603260045260246000fd5b9060005260206000200160108281548110611405577f4e487b7100000000000000000000000000000000000000000000000000000000600052603260045260246000fd5b9060005260206000200181805461141b90613e0b565b80601f016020809104026020016040519081016040528092919081815260200182805461144790613e0b565b80156114945780601f1061146957610100808354040283529160200191611494565b820191906000526020600020905b81548152906001019060200180831161147757829003601f168201915b505050505091508080546114a790613e0b565b80601f01602080910402602001604051908101604052809291908181526020018280546114d390613e0b565b80156115205780601f106114f557610100808354040283529160200191611520565b820191906000526020600020905b81548152906001019060200180831161150357829003601f168201915b505050505090509250925050915091565b61154261153c611b08565b83611f7e565b611581576040517f08c379a000000000000000000000000000000000000000000000000000000000815260040161157890613ad1565b60405180910390fd5b61158d8484848461255e565b50505050565b606060006115d16115a3846122b8565b6115ac426122b8565b6040516020016115bd9291906135b3565b604051602081830303815290604052612465565b9050600f80549050816115e49190613eb7565b9050600f8181548110611620577f4e487b7100000000000000000000000000000000000000000000000000000000600052603260045260246000fd5b90600052602060002001805461163590613e0b565b80601f016020809104026020016040519081016040528092919081815260200182805461166190613e0b565b80156116ae5780601f10611683576101008083540402835291602001916116ae565b820191906000526020600020905b81548152906001019060200180831161169157829003601f168201915b5050505050915050919050565b60606116c682611a9c565b611705576040517f08c379a00000000000000000000000000000000000000000000000000000000081526004016116fc90613a11565b60405180910390fd5b600060066000848152602001908152602001600020805461172590613e0b565b80601f016020809104026020016040519081016040528092919081815260200182805461175190613e0b565b801561179e5780601f106117735761010080835404028352916020019161179e565b820191906000526020600020905b81548152906001019060200180831161178157829003601f168201915b5050505050905060006117af6125ba565b90506000815114156117c5578192505050611808565b6000825111156117fa5780826040516020016117e2929190613500565b60405160208183030381529060405292505050611808565b611803846125d1565b925050505b919050565b6000600560008473ffffffffffffffffffffffffffffffffffffffff1673ffffffffffffffffffffffffffffffffffffffff16815260200190815260200160002060008373ffffffffffffffffffffffffffffffffffffffff1673ffffffffffffffffffffffffffffffffffffffff16815260200190815260200160002060009054906101000a900460ff16905092915050565b6118a9611b08565b73ffffffffffffffffffffffffffffffffffffffff166118c76110c0565b73ffffffffffffffffffffffffffffffffffffffff161461191d576040517f08c379a000000000000000000000000000000000000000000000000000000000815260040161191490613a51565b60405180910390fd5b600073ffffffffffffffffffffffffffffffffffffffff168173ffffffffffffffffffffffffffffffffffffffff16141561198d576040517f08c379a0000000000000000000000000000000000000000000000000000000008152600401611984906138d1565b60405180910390fd5b61199681612498565b50565b611a2f816040516024016119ad91906137b9565b6040516020818303038152906040527f41304fac000000000000000000000000000000000000000000000000000000007bffffffffffffffffffffffffffffffffffffffffffffffffffffffff19166020820180517bffffffffffffffffffffffffffffffffffffffffffffffffffffffff8381831617835250505050612678565b50565b60007f01ffc9a7000000000000000000000000000000000000000000000000000000007bffffffffffffffffffffffffffffffffffffffffffffffffffffffff1916827bffffffffffffffffffffffffffffffffffffffffffffffffffffffff1916149050919050565b60008073ffffffffffffffffffffffffffffffffffffffff166002600084815260200190815260200160002060009054906101000a900473ffffffffffffffffffffffffffffffffffffffff1673ffffffffffffffffffffffffffffffffffffffff1614159050919050565b600033905090565b816004600083815260200190815260200160002060006101000a81548173ffffffffffffffffffffffffffffffffffffffff021916908373ffffffffffffffffffffffffffffffffffffffff160217905550808273ffffffffffffffffffffffffffffffffffffffff16611b8383610ece565b73ffffffffffffffffffffffffffffffffffffffff167f8c5be1e5ebec7d5bd14f71427d1e84f3dd0314c0f7b2291e5b200ac8c7c3b92560405160405180910390a45050565b600081600001549050919050565b60606000825190506000811415611c005760405180602001604052806000815250915050611d90565b60006003600283611c119190613c40565b611c1b9190613c96565b6004611c279190613cc7565b90506000602082611c389190613c40565b67ffffffffffffffff811115611c77577f4e487b7100000000000000000000000000000000000000000000000000000000600052604160045260246000fd5b6040519080825280601f01601f191660200182016040528015611ca95781602001600182028036833780820191505090505b50905060006040518060600160405280604081526020016146ed604091399050600181016020830160005b86811015611d4d5760038101905062ffffff818a015116603f8160121c168401518060081b905060ff603f83600c1c1686015116810190508060081b905060ff603f8360061c1686015116810190508060081b905060ff603f831686015116810190508060e01b90508084526004840193505050611cd4565b506003860660018114611d675760028114611d7757611d82565b613d3d60f01b6002830352611d82565b603d60f81b60018303525b508484525050819450505050505b919050565b611daf8282604051806020016040528060008152506126a1565b5050565b611dbc82611a9c565b611dfb576040517f08c379a0000000000000000000000000000000000000000000000000000000008152600401611df2906139d1565b60405180910390fd5b80600660008481526020019081526020016000209080519060200190611e22929190612a79565b505050565b611ec384848484604051602401611e419493929190613812565b6040516020818303038152906040527fde68f20a000000000000000000000000000000000000000000000000000000007bffffffffffffffffffffffffffffffffffffffffffffffffffffffff19166020820180517bffffffffffffffffffffffffffffffffffffffffffffffffffffffff8381831617835250505050612678565b50505050565b6001816000016000828254019250508190555050565b611f79838383604051602401611ef793929190613873565b6040516020818303038152906040527fe3849f79000000000000000000000000000000000000000000000000000000007bffffffffffffffffffffffffffffffffffffffffffffffffffffffff19166020820180517bffffffffffffffffffffffffffffffffffffffffffffffffffffffff8381831617835250505050612678565b505050565b6000611f8982611a9c565b611fc8576040517f08c379a0000000000000000000000000000000000000000000000000000000008152600401611fbf90613951565b60405180910390fd5b6000611fd383610ece565b90508073ffffffffffffffffffffffffffffffffffffffff168473ffffffffffffffffffffffffffffffffffffffff16148061204257508373ffffffffffffffffffffffffffffffffffffffff1661202a846105d0565b73ffffffffffffffffffffffffffffffffffffffff16145b806120535750612052818561180d565b5b91505092915050565b8273ffffffffffffffffffffffffffffffffffffffff1661207c82610ece565b73ffffffffffffffffffffffffffffffffffffffff16146120d2576040517f08c379a00000000000000000000000000000000000000000000000000000000081526004016120c990613a71565b60405180910390fd5b600073ffffffffffffffffffffffffffffffffffffffff168273ffffffffffffffffffffffffffffffffffffffff161415612142576040517f08c379a000000000000000000000000000000000000000000000000000000000815260040161213990613911565b60405180910390fd5b61214d8383836126fc565b612158600082611b10565b6001600360008573ffffffffffffffffffffffffffffffffffffffff1673ffffffffffffffffffffffffffffffffffffffff16815260200190815260200160002060008282546121a89190613d21565b925050819055506001600360008473ffffffffffffffffffffffffffffffffffffffff1673ffffffffffffffffffffffffffffffffffffffff16815260200190815260200160002060008282546121ff9190613c40565b92505081905550816002600083815260200190815260200160002060006101000a81548173ffffffffffffffffffffffffffffffffffffffff021916908373ffffffffffffffffffffffffffffffffffffffff160217905550808273ffffffffffffffffffffffffffffffffffffffff168473ffffffffffffffffffffffffffffffffffffffff167fddf252ad1be2c89b69c2b068fc378daa952ba7f163c4a11628f55a4df523b3ef60405160405180910390a4505050565b60606000821415612300576040518060400160405280600181526020017f30000000000000000000000000000000000000000000000000000000000000008152509050612460565b600082905060005b6000821461233257808061231b90613e6e565b915050600a8261232b9190613c96565b9150612308565b60008167ffffffffffffffff811115612374577f4e487b7100000000000000000000000000000000000000000000000000000000600052604160045260246000fd5b6040519080825280601f01601f1916602001820160405280156123a65781602001600182028036833780820191505090505b5090505b60008514612459576001826123bf9190613d21565b9150600a856123ce9190613eb7565b60306123da9190613c40565b60f81b818381518110612416577f4e487b7100000000000000000000000000000000000000000000000000000000600052603260045260246000fd5b60200101907effffffffffffffffffffffffffffffffffffffffffffffffffffffffffffff1916908160001a905350600a856124529190613c96565b94506123aa565b8093505050505b919050565b60008160405160200161247891906134e9565b6040516020818303038152906040528051906020012060001c9050919050565b6000600760009054906101000a900473ffffffffffffffffffffffffffffffffffffffff16905081600760006101000a81548173ffffffffffffffffffffffffffffffffffffffff021916908373ffffffffffffffffffffffffffffffffffffffff1602179055508173ffffffffffffffffffffffffffffffffffffffff168173ffffffffffffffffffffffffffffffffffffffff167f8be0079c531659141344cd1fd0a4f28419497f9722a3daafe3b4186f6b6457e060405160405180910390a35050565b61256984848461205c565b61257584848484612701565b6125b4576040517f08c379a00000000000000000000000000000000000000000000000000000000081526004016125ab906138b1565b60405180910390fd5b50505050565b606060405180602001604052806000815250905090565b60606125dc82611a9c565b61261b576040517f08c379a000000000000000000000000000000000000000000000000000000000815260040161261290613a91565b60405180910390fd5b60006126256125ba565b905060008151116126455760405180602001604052806000815250612670565b8061264f846122b8565b604051602001612660929190613500565b6040516020818303038152906040525b915050919050565b60008151905060006a636f6e736f6c652e6c6f679050602083016000808483855afa5050505050565b6126ab8383612898565b6126b86000848484612701565b6126f7576040517f08c379a00000000000000000000000000000000000000000000000000000000081526004016126ee906138b1565b60405180910390fd5b505050565b505050565b60006127228473ffffffffffffffffffffffffffffffffffffffff16612a66565b1561288b578373ffffffffffffffffffffffffffffffffffffffff1663150b7a0261274b611b08565b8786866040518563ffffffff1660e01b815260040161276d94939291906136d7565b602060405180830381600087803b15801561278757600080fd5b505af19250505080156127b857506040513d601f19601f820116820180604052508101906127b59190612e25565b60015b61283b573d80600081146127e8576040519150601f19603f3d011682016040523d82523d6000602084013e6127ed565b606091505b50600081511415612833576040517f08c379a000000000000000000000000000000000000000000000000000000000815260040161282a906138b1565b60405180910390fd5b805181602001fd5b63150b7a0260e01b7bffffffffffffffffffffffffffffffffffffffffffffffffffffffff1916817bffffffffffffffffffffffffffffffffffffffffffffffffffffffff191614915050612890565b600190505b949350505050565b600073ffffffffffffffffffffffffffffffffffffffff168273ffffffffffffffffffffffffffffffffffffffff161415612908576040517f08c379a00000000000000000000000000000000000000000000000000000000081526004016128ff906139f1565b60405180910390fd5b61291181611a9c565b15612951576040517f08c379a0000000000000000000000000000000000000000000000000000000008152600401612948906138f1565b60405180910390fd5b61295d600083836126fc565b6001600360008473ffffffffffffffffffffffffffffffffffffffff1673ffffffffffffffffffffffffffffffffffffffff16815260200190815260200160002060008282546129ad9190613c40565b92505081905550816002600083815260200190815260200160002060006101000a81548173ffffffffffffffffffffffffffffffffffffffff021916908373ffffffffffffffffffffffffffffffffffffffff160217905550808273ffffffffffffffffffffffffffffffffffffffff16600073ffffffffffffffffffffffffffffffffffffffff167fddf252ad1be2c89b69c2b068fc378daa952ba7f163c4a11628f55a4df523b3ef60405160405180910390a45050565b600080823b905060008111915050919050565b828054612a8590613e0b565b90600052602060002090601f016020900481019282612aa75760008555612aee565b82601f10612ac057805160ff1916838001178555612aee565b82800160010185558215612aee579182015b82811115612aed578251825591602001919060010190612ad2565b5b509050612afb9190612aff565b5090565b5b80821115612b18576000816000905550600101612b00565b5090565b6000612b2f612b2a84613b31565b613b0c565b905082815260208101848484011115612b4757600080fd5b612b52848285613dc9565b509392505050565b6000612b6d612b6884613b62565b613b0c565b905082815260208101848484011115612b8557600080fd5b612b90848285613dc9565b509392505050565b600081359050612ba78161466b565b92915050565b600081359050612bbc81614682565b92915050565b600081359050612bd181614699565b92915050565b600081519050612be681614699565b92915050565b600082601f830112612bfd57600080fd5b8135612c0d848260208601612b1c565b91505092915050565b600082601f830112612c2757600080fd5b8135612c37848260208601612b5a565b91505092915050565b600081359050612c4f816146b0565b92915050565b600060208284031215612c6757600080fd5b6000612c7584828501612b98565b91505092915050565b60008060408385031215612c9157600080fd5b6000612c9f85828601612b98565b9250506020612cb085828601612b98565b9150509250929050565b600080600060608486031215612ccf57600080fd5b6000612cdd86828701612b98565b9350506020612cee86828701612b98565b9250506040612cff86828701612c40565b9150509250925092565b60008060008060808587031215612d1f57600080fd5b6000612d2d87828801612b98565b9450506020612d3e87828801612b98565b9350506040612d4f87828801612c40565b925050606085013567ffffffffffffffff811115612d6c57600080fd5b612d7887828801612bec565b91505092959194509250565b60008060408385031215612d9757600080fd5b6000612da585828601612b98565b9250506020612db685828601612bad565b9150509250929050565b60008060408385031215612dd357600080fd5b6000612de185828601612b98565b9250506020612df285828601612c40565b9150509250929050565b600060208284031215612e0e57600080fd5b6000612e1c84828501612bc2565b91505092915050565b600060208284031215612e3757600080fd5b6000612e4584828501612bd7565b91505092915050565b600060208284031215612e6057600080fd5b600082013567ffffffffffffffff811115612e7a57600080fd5b612e8684828501612c16565b91505092915050565b600060208284031215612ea157600080fd5b6000612eaf84828501612c40565b91505092915050565b6000612ec4838361349d565b905092915050565b612ed581613d55565b82525050565b612ee481613d55565b82525050565b6000612ef582613bb8565b612eff8185613be6565b935083602082028501612f1185613b93565b8060005b85811015612f4d5784840389528151612f2e8582612eb8565b9450612f3983613bd9565b925060208a01995050600181019050612f15565b50829750879550505050505092915050565b612f6881613d67565b82525050565b6000612f7982613bc3565b612f838185613bf7565b9350612f93818560208601613dd8565b612f9c81613fa4565b840191505092915050565b6000612fb282613bce565b612fbc8185613c13565b9350612fcc818560208601613dd8565b612fd581613fa4565b840191505092915050565b6000612feb82613bce565b612ff58185613c24565b9350613005818560208601613dd8565b61300e81613fa4565b840191505092915050565b600061302482613bce565b61302e8185613c35565b935061303e818560208601613dd8565b80840191505092915050565b6000815461305781613e0b565b6130618186613c35565b9450600182166000811461307c576001811461308d576130c0565b60ff198316865281860193506130c0565b61309685613ba3565b60005b838110156130b857815481890152600182019150602081019050613099565b838801955050505b50505092915050565b60006130d6600683613c35565b91506130e182613fb5565b600682019050919050565b60006130f9603283613c24565b915061310482613fde565b604082019050919050565b600061311c602683613c24565b91506131278261402d565b604082019050919050565b600061313f601c83613c24565b915061314a8261407c565b602082019050919050565b6000613162604f83613c35565b915061316d826140a5565b604f82019050919050565b6000613185600a83613c35565b91506131908261411a565b600a82019050919050565b60006131a8602483613c24565b91506131b382614143565b604082019050919050565b60006131cb601983613c24565b91506131d682614192565b602082019050919050565b60006131ee600b83613c35565b91506131f9826141bb565b600b82019050919050565b6000613211602c83613c24565b915061321c826141e4565b604082019050919050565b6000613234600d83613c35565b915061323f82614233565b600d82019050919050565b6000613257603883613c24565b91506132628261425c565b604082019050919050565b600061327a602a83613c24565b9150613285826142ab565b604082019050919050565b600061329d602983613c24565b91506132a8826142fa565b604082019050919050565b60006132c0602e83613c24565b91506132cb82614349565b604082019050919050565b60006132e3600283613c35565b91506132ee82614398565b600282019050919050565b6000613306602083613c24565b9150613311826143c1565b602082019050919050565b6000613329603183613c24565b9150613334826143ea565b604082019050919050565b600061334c602c83613c24565b915061335782614439565b604082019050919050565b600061336f602083613c24565b915061337a82614488565b602082019050919050565b6000613392602983613c24565b915061339d826144b1565b604082019050919050565b60006133b5602f83613c24565b91506133c082614500565b604082019050919050565b60006133d8600a83613c35565b91506133e38261454f565b600a82019050919050565b60006133fb602183613c24565b915061340682614578565b604082019050919050565b600061341e600a83613c35565b9150613429826145c7565b600a82019050919050565b6000613441601d83613c35565b915061344c826145f0565b601d82019050919050565b6000613464600083613c08565b915061346f82614619565b600082019050919050565b6000613487603183613c24565b91506134928261461c565b604082019050919050565b60006040830160008301516134b56000860182612ecc565b50602083015184820360208601526134cd8282612fa7565b9150508091505092915050565b6134e381613dbf565b82525050565b60006134f58284613019565b915081905092915050565b600061350c8285613019565b91506135188284613019565b91508190509392505050565b60006135308286613019565b915061353c8285613019565b91506135488284613019565b9150819050949350505050565b6000613561828761304a565b915061356d8286613019565b9150613579828561304a565b91506135858284613019565b915061359082613227565b915081905095945050505050565b60006135a9826130c9565b9150819050919050565b60006135be82613178565b91506135ca8285613019565b91506135d68284613019565b91508190509392505050565b60006135ed826131e1565b91506135f98285613019565b91506136058284613019565b91508190509392505050565b600061361c826133cb565b91506136288285613019565b915061363382613155565b915061363f8284613019565b915061364a826132d6565b91508190509392505050565b600061366182613411565b915061366d8285613019565b91506136798284613019565b91508190509392505050565b600061369082613434565b915061369c8284613019565b915081905092915050565b60006136b282613457565b9150819050919050565b60006020820190506136d16000830184612edb565b92915050565b60006080820190506136ec6000830187612edb565b6136f96020830186612edb565b61370660408301856134da565b81810360608301526137188184612f6e565b905095945050505050565b60006040820190506137386000830185612edb565b818103602083015261374a8184612fe0565b90509392505050565b60006040820190506137686000830185612edb565b61377560208301846134da565b9392505050565b600060208201905081810360008301526137968184612eea565b905092915050565b60006020820190506137b36000830184612f5f565b92915050565b600060208201905081810360008301526137d38184612fe0565b905092915050565b600060408201905081810360008301526137f58185612fe0565b905081810360208301526138098184612fe0565b90509392505050565b6000608082019050818103600083015261382c8187612fe0565b905081810360208301526138408186612fe0565b905081810360408301526138548185612fe0565b905081810360608301526138688184612fe0565b905095945050505050565b6000606082019050818103600083015261388d8186612fe0565b905061389c60208301856134da565b6138a96040830184612edb565b949350505050565b600060208201905081810360008301526138ca816130ec565b9050919050565b600060208201905081810360008301526138ea8161310f565b9050919050565b6000602082019050818103600083015261390a81613132565b9050919050565b6000602082019050818103600083015261392a8161319b565b9050919050565b6000602082019050818103600083015261394a816131be565b9050919050565b6000602082019050818103600083015261396a81613204565b9050919050565b6000602082019050818103600083015261398a8161324a565b9050919050565b600060208201905081810360008301526139aa8161326d565b9050919050565b600060208201905081810360008301526139ca81613290565b9050919050565b600060208201905081810360008301526139ea816132b3565b9050919050565b60006020820190508181036000830152613a0a816132f9565b9050919050565b60006020820190508181036000830152613a2a8161331c565b9050919050565b60006020820190508181036000830152613a4a8161333f565b9050919050565b60006020820190508181036000830152613a6a81613362565b9050919050565b60006020820190508181036000830152613a8a81613385565b9050919050565b60006020820190508181036000830152613aaa816133a8565b9050919050565b60006020820190508181036000830152613aca816133ee565b9050919050565b60006020820190508181036000830152613aea8161347a565b9050919050565b6000602082019050613b0660008301846134da565b92915050565b6000613b16613b27565b9050613b228282613e3d565b919050565b6000604051905090565b600067ffffffffffffffff821115613b4c57613b4b613f75565b5b613b5582613fa4565b9050602081019050919050565b600067ffffffffffffffff821115613b7d57613b7c613f75565b5b613b8682613fa4565b9050602081019050919050565b6000819050602082019050919050565b60008190508160005260206000209050919050565b600081519050919050565b600081519050919050565b600081519050919050565b6000602082019050919050565b600082825260208201905092915050565b600082825260208201905092915050565b600081905092915050565b600082825260208201905092915050565b600082825260208201905092915050565b600081905092915050565b6000613c4b82613dbf565b9150613c5683613dbf565b9250827fffffffffffffffffffffffffffffffffffffffffffffffffffffffffffffffff03821115613c8b57613c8a613ee8565b5b828201905092915050565b6000613ca182613dbf565b9150613cac83613dbf565b925082613cbc57613cbb613f17565b5b828204905092915050565b6000613cd282613dbf565b9150613cdd83613dbf565b9250817fffffffffffffffffffffffffffffffffffffffffffffffffffffffffffffffff0483118215151615613d1657613d15613ee8565b5b828202905092915050565b6000613d2c82613dbf565b9150613d3783613dbf565b925082821015613d4a57613d49613ee8565b5b828203905092915050565b6000613d6082613d9f565b9050919050565b60008115159050919050565b60007fffffffff0000000000000000000000000000000000000000000000000000000082169050919050565b600073ffffffffffffffffffffffffffffffffffffffff82169050919050565b6000819050919050565b82818337600083830152505050565b60005b83811015613df6578082015181840152602081019050613ddb565b83811115613e05576000848401525b50505050565b60006002820490506001821680613e2357607f821691505b60208210811415613e3757613e36613f46565b5b50919050565b613e4682613fa4565b810181811067ffffffffffffffff82111715613e6557613e64613f75565b5b80604052505050565b6000613e7982613dbf565b91507fffffffffffffffffffffffffffffffffffffffffffffffffffffffffffffffff821415613eac57613eab613ee8565b5b600182019050919050565b6000613ec282613dbf565b9150613ecd83613dbf565b925082613edd57613edc613f17565b5b828206905092915050565b7f4e487b7100000000000000000000000000000000000000000000000000000000600052601160045260246000fd5b7f4e487b7100000000000000000000000000000000000000000000000000000000600052601260045260246000fd5b7f4e487b7100000000000000000000000000000000000000000000000000000000600052602260045260246000fd5b7f4e487b7100000000000000000000000000000000000000000000000000000000600052604160045260246000fd5b6000601f19601f8301169050919050565b7f5368696e79200000000000000000000000000000000000000000000000000000600082015250565b7f4552433732313a207472616e7366657220746f206e6f6e20455243373231526560008201527f63656976657220696d706c656d656e7465720000000000000000000000000000602082015250565b7f4f776e61626c653a206e6577206f776e657220697320746865207a65726f206160008201527f6464726573730000000000000000000000000000000000000000000000000000602082015250565b7f4552433732313a20746f6b656e20616c7265616479206d696e74656400000000600082015250565b7f222c20226465736372697074696f6e223a202241205f6275696c64737061636560008201527f20506f6b656d6f6e222c2022696d616765223a2022646174613a696d6167652f60208201527f7376672b786d6c3b6261736536342c0000000000000000000000000000000000604082015250565b7f54484952445f574f524400000000000000000000000000000000000000000000600082015250565b7f4552433732313a207472616e7366657220746f20746865207a65726f2061646460008201527f7265737300000000000000000000000000000000000000000000000000000000602082015250565b7f4552433732313a20617070726f766520746f2063616c6c657200000000000000600082015250565b7f5345434f4e445f574f5244000000000000000000000000000000000000000000600082015250565b7f4552433732313a206f70657261746f7220717565727920666f72206e6f6e657860008201527f697374656e7420746f6b656e0000000000000000000000000000000000000000602082015250565b7f3c2f746578743e3c2f7376673e00000000000000000000000000000000000000600082015250565b7f4552433732313a20617070726f76652063616c6c6572206973206e6f74206f7760008201527f6e6572206e6f7220617070726f76656420666f7220616c6c0000000000000000602082015250565b7f4552433732313a2062616c616e636520717565727920666f7220746865207a6560008201527f726f206164647265737300000000000000000000000000000000000000000000602082015250565b7f4552433732313a206f776e657220717565727920666f72206e6f6e657869737460008201527f656e7420746f6b656e0000000000000000000000000000000000000000000000602082015250565b7f45524337323155524953746f726167653a2055524920736574206f66206e6f6e60008201527f6578697374656e7420746f6b656e000000000000000000000000000000000000602082015250565b7f227d000000000000000000000000000000000000000000000000000000000000600082015250565b7f4552433732313a206d696e7420746f20746865207a65726f2061646472657373600082015250565b7f45524337323155524953746f726167653a2055524920717565727920666f722060008201527f6e6f6e6578697374656e7420746f6b656e000000000000000000000000000000602082015250565b7f4552433732313a20617070726f76656420717565727920666f72206e6f6e657860008201527f697374656e7420746f6b656e0000000000000000000000000000000000000000602082015250565b7f4f776e61626c653a2063616c6c6572206973206e6f7420746865206f776e6572600082015250565b7f4552433732313a207472616e73666572206f6620746f6b656e2074686174206960008201527f73206e6f74206f776e0000000000000000000000000000000000000000000000602082015250565b7f4552433732314d657461646174613a2055524920717565727920666f72206e6f60008201527f6e6578697374656e7420746f6b656e0000000000000000000000000000000000602082015250565b7f7b226e616d65223a202200000000000000000000000000000000000000000000600082015250565b7f4552433732313a20617070726f76616c20746f2063757272656e74206f776e6560008201527f7200000000000000000000000000000000000000000000000000000000000000602082015250565b7f46495253545f574f524400000000000000000000000000000000000000000000600082015250565b7f646174613a6170706c69636174696f6e2f6a736f6e3b6261736536342c000000600082015250565b50565b7f4552433732313a207472616e736665722063616c6c6572206973206e6f74206f60008201527f776e6572206e6f7220617070726f766564000000000000000000000000000000602082015250565b61467481613d55565b811461467f57600080fd5b50565b61468b81613d67565b811461469657600080fd5b50565b6146a281613d73565b81146146ad57600080fd5b50565b6146b981613dbf565b81146146c457600080fd5b5056fe416e204e465420772f20494420257320686173206265656e206d696e74656420746f2025734142434445464748494a4b4c4d4e4f505152535455565758595a6162636465666768696a6b6c6d6e6f707172737475767778797a303132333435363738392b2fa264697066735822122039ec90000d99f30ed3f3d219aeb8b0b62fa92d0246cc3ded71b9cd2cdfbe49ef64736f6c634300080400334275696c64737061636520506f6b656d6f6e204e465420436f6e747261637420686173206265656e2073756363657366756c6c79206465706c6f796564213c73766720786d6c6e733d27687474703a2f2f7777772e77332e6f72672f323030302f73766727207072657365727665417370656374526174696f3d27784d696e594d696e206d656574272076696577426f783d273020302033353020333530273e3c7374796c653e2e62617365207b2066696c6c3a2077686974653b20666f6e742d66616d696c793a2073657269663b20666f6e742d73697a653a20323470783b207d3c2f7374796c653e3c726563742077696474683d273130302527206865696768743d2731303025272066696c6c3d27272f3e3c7465787420783d273530252720793d273530252720636c6173733d27626173652720646f6d696e616e742d626173656c696e653d276d6964646c652720746578742d616e63686f723d276d6964646c65273e",
  "linkReferences": {},
  "deployedLinkReferences": {}
}